{
  "_format": "hh-sol-artifact-1",
  "contractName": "NFT",
  "sourceName": "contracts/NFT.sol",
  "abi": [
    {
      "anonymous": false,
      "inputs": [
        {
          "indexed": true,
          "internalType": "address",
          "name": "to",
          "type": "address"
        },
        {
          "indexed": false,
          "internalType": "uint256",
          "name": "tokenId",
          "type": "uint256"
        },
        {
          "indexed": false,
          "internalType": "string",
          "name": "participantName",
          "type": "string"
        },
        {
          "indexed": false,
          "internalType": "string",
          "name": "quizCreatorName",
          "type": "string"
        },
        {
          "indexed": false,
          "internalType": "string",
          "name": "quizName",
          "type": "string"
        }
      ],
      "name": "Mint",
      "type": "event"
    },
    {
      "anonymous": false,
      "inputs": [
        {
          "indexed": true,
          "internalType": "address",
          "name": "from",
          "type": "address"
        },
        {
          "indexed": true,
          "internalType": "address",
          "name": "to",
          "type": "address"
        },
        {
          "indexed": false,
          "internalType": "uint256",
          "name": "tokenId",
          "type": "uint256"
        }
      ],
      "name": "TransferAttempt",
      "type": "event"
    },
    {
      "inputs": [
        {
          "internalType": "address",
          "name": "to",
          "type": "address"
        },
        {
          "internalType": "uint256",
          "name": "tokenId",
          "type": "uint256"
        }
      ],
      "name": "approve",
      "outputs": [],
      "stateMutability": "nonpayable",
      "type": "function"
    },
    {
      "inputs": [
        {
          "internalType": "uint256",
          "name": "tokenId",
          "type": "uint256"
        }
      ],
      "name": "getTokenDetails",
      "outputs": [
        {
          "internalType": "string",
          "name": "participantName",
          "type": "string"
        },
        {
          "internalType": "string",
          "name": "quizCreatorName",
          "type": "string"
        },
        {
          "internalType": "string",
          "name": "quizName",
          "type": "string"
        },
        {
          "internalType": "string",
          "name": "imageUrl",
          "type": "string"
        }
      ],
      "stateMutability": "view",
      "type": "function"
    },
    {
      "inputs": [],
      "name": "imageURL",
      "outputs": [
        {
          "internalType": "string",
          "name": "",
          "type": "string"
        }
      ],
      "stateMutability": "view",
      "type": "function"
    },
    {
      "inputs": [
        {
          "internalType": "address",
          "name": "to",
          "type": "address"
        },
        {
          "internalType": "string",
          "name": "participantName",
          "type": "string"
        },
        {
          "internalType": "string",
          "name": "quizCreatorName",
          "type": "string"
        },
        {
          "internalType": "string",
          "name": "quizName",
          "type": "string"
        }
      ],
      "name": "mint",
      "outputs": [],
      "stateMutability": "nonpayable",
      "type": "function"
    },
    {
      "inputs": [],
      "name": "name",
      "outputs": [
        {
          "internalType": "string",
          "name": "",
          "type": "string"
        }
      ],
      "stateMutability": "view",
      "type": "function"
    },
    {
      "inputs": [],
      "name": "nextTokenId",
      "outputs": [
        {
          "internalType": "uint256",
          "name": "",
          "type": "uint256"
        }
      ],
      "stateMutability": "view",
      "type": "function"
    },
    {
      "inputs": [
        {
          "internalType": "uint256",
          "name": "tokenId",
          "type": "uint256"
        }
      ],
      "name": "ownerOf",
      "outputs": [
        {
          "internalType": "address",
          "name": "",
          "type": "address"
        }
      ],
      "stateMutability": "view",
      "type": "function"
    },
    {
      "inputs": [
        {
          "internalType": "address",
          "name": "operator",
          "type": "address"
        },
        {
          "internalType": "bool",
          "name": "approved",
          "type": "bool"
        }
      ],
      "name": "setApprovalForAll",
      "outputs": [],
      "stateMutability": "nonpayable",
      "type": "function"
    },
    {
      "inputs": [],
      "name": "symbol",
      "outputs": [
        {
          "internalType": "string",
          "name": "",
          "type": "string"
        }
      ],
      "stateMutability": "view",
      "type": "function"
    },
    {
      "inputs": [
        {
          "internalType": "uint256",
          "name": "",
          "type": "uint256"
        }
      ],
      "name": "tokenOwners",
      "outputs": [
        {
          "internalType": "address",
          "name": "",
          "type": "address"
        }
      ],
      "stateMutability": "view",
      "type": "function"
    },
    {
      "inputs": [
        {
          "internalType": "uint256",
          "name": "",
          "type": "uint256"
        }
      ],
      "name": "tokens",
      "outputs": [
        {
          "internalType": "string",
          "name": "participantName",
          "type": "string"
        },
        {
          "internalType": "string",
          "name": "quizCreatorName",
          "type": "string"
        },
        {
          "internalType": "string",
          "name": "quizName",
          "type": "string"
        }
      ],
      "stateMutability": "view",
      "type": "function"
    },
    {
      "inputs": [
        {
          "internalType": "address",
          "name": "from",
          "type": "address"
        },
        {
          "internalType": "address",
          "name": "to",
          "type": "address"
        },
        {
          "internalType": "uint256",
          "name": "tokenId",
          "type": "uint256"
        }
      ],
      "name": "transferFrom",
      "outputs": [],
      "stateMutability": "nonpayable",
      "type": "function"
    }
  ],
  "bytecode": "0x60806040526040518060400160405280600481526020017f5649424500000000000000000000000000000000000000000000000000000000815250600090816100489190610318565b506040518060400160405280600481526020017f56494245000000000000000000000000000000000000000000000000000000008152506001908161008d9190610318565b506040518060800160405280604481526020016119ad60449139600290816100b59190610318565b503480156100c257600080fd5b506103ea565b600081519050919050565b7f4e487b7100000000000000000000000000000000000000000000000000000000600052604160045260246000fd5b7f4e487b7100000000000000000000000000000000000000000000000000000000600052602260045260246000fd5b6000600282049050600182168061014957607f821691505b60208210810361015c5761015b610102565b5b50919050565b60008190508160005260206000209050919050565b60006020601f8301049050919050565b600082821b905092915050565b6000600883026101c47fffffffffffffffffffffffffffffffffffffffffffffffffffffffffffffffff82610187565b6101ce8683610187565b95508019841693508086168417925050509392505050565b6000819050919050565b6000819050919050565b600061021561021061020b846101e6565b6101f0565b6101e6565b9050919050565b6000819050919050565b61022f836101fa565b61024361023b8261021c565b848454610194565b825550505050565b600090565b61025861024b565b610263818484610226565b505050565b5b818110156102875761027c600082610250565b600181019050610269565b5050565b601f8211156102cc5761029d81610162565b6102a684610177565b810160208510156102b5578190505b6102c96102c185610177565b830182610268565b50505b505050565b600082821c905092915050565b60006102ef600019846008026102d1565b1980831691505092915050565b600061030883836102de565b9150826002028217905092915050565b610321826100c8565b67ffffffffffffffff81111561033a576103396100d3565b5b6103448254610131565b61034f82828561028b565b600060209050601f8311600181146103825760008415610370578287015190505b61037a85826102fc565b8655506103e2565b601f19841661039086610162565b60005b828110156103b857848901518255600182019150602085019450602081019050610393565b868310156103d557848901516103d1601f8916826102de565b8355505b6001600288020188555050505b505050505050565b6115b4806103f96000396000f3fe608060405234801561001057600080fd5b50600436106100b45760003560e01c806375794a3c1161007157806375794a3c1461018d57806395d89b41146101ab578063a22cb465146101c9578063b90497e0146101e5578063c1e0372814610203578063f8a14f4614610236576100b4565b806306fdde03146100b9578063095ea7b3146100d757806323b872dd146100f35780634a0706be1461010f5780634f64b2be1461012b5780636352211e1461015d575b600080fd5b6100c1610266565b6040516100ce9190610bb8565b60405180910390f35b6100f160048036038101906100ec9190610c82565b6102f4565b005b61010d60048036038101906101089190610cc2565b61032f565b005b61012960048036038101906101249190610e4a565b6103cf565b005b61014560048036038101906101409190610f05565b61050e565b60405161015493929190610f32565b60405180910390f35b61017760048036038101906101729190610f05565b6106d0565b6040516101849190610f8d565b60405180910390f35b61019561070d565b6040516101a29190610fb7565b60405180910390f35b6101b3610713565b6040516101c09190610bb8565b60405180910390f35b6101e360048036038101906101de919061100a565b6107a1565b005b6101ed6107dc565b6040516101fa9190610bb8565b60405180910390f35b61021d60048036038101906102189190610f05565b61086a565b60405161022d949392919061104a565b60405180910390f35b610250600480360381019061024b9190610f05565b610af5565b60405161025d9190610f8d565b60405180910390f35b60008054610273906110da565b80601f016020809104026020016040519081016040528092919081815260200182805461029f906110da565b80156102ec5780601f106102c1576101008083540402835291602001916102ec565b820191906000526020600020905b8154815290600101906020018083116102cf57829003601f168201915b505050505081565b6040517f08c379a00000000000000000000000000000000000000000000000000000000081526004016103269061117d565b60405180910390fd5b8173ffffffffffffffffffffffffffffffffffffffff168373ffffffffffffffffffffffffffffffffffffffff167f883dd34324c5e33f1ce994b8f1652ab425a78c77305f00a08660b05245ed17b38360405161038c9190610fb7565b60405180910390a36040517f08c379a00000000000000000000000000000000000000000000000000000000081526004016103c69061120f565b60405180910390fd5b6000600354905060405180606001604052808581526020018481526020018381525060046000838152602001908152602001600020600082015181600001908161041991906113db565b50602082015181600101908161042f91906113db565b50604082015181600201908161044591906113db565b50905050846005600083815260200190815260200160002060006101000a81548173ffffffffffffffffffffffffffffffffffffffff021916908373ffffffffffffffffffffffffffffffffffffffff1602179055508473ffffffffffffffffffffffffffffffffffffffff167f3008cd1b07fb304ff3fd96dfc9c0b352dd13f3297e45341023a63e8dd89101ef828686866040516104e794939291906114ad565b60405180910390a26003600081548092919061050290611536565b91905055505050505050565b6004602052806000526040600020600091509050806000018054610531906110da565b80601f016020809104026020016040519081016040528092919081815260200182805461055d906110da565b80156105aa5780601f1061057f576101008083540402835291602001916105aa565b820191906000526020600020905b81548152906001019060200180831161058d57829003601f168201915b5050505050908060010180546105bf906110da565b80601f01602080910402602001604051908101604052809291908181526020018280546105eb906110da565b80156106385780601f1061060d57610100808354040283529160200191610638565b820191906000526020600020905b81548152906001019060200180831161061b57829003601f168201915b50505050509080600201805461064d906110da565b80601f0160208091040260200160405190810160405280929190818152602001828054610679906110da565b80156106c65780601f1061069b576101008083540402835291602001916106c6565b820191906000526020600020905b8154815290600101906020018083116106a957829003601f168201915b5050505050905083565b60006005600083815260200190815260200160002060009054906101000a900473ffffffffffffffffffffffffffffffffffffffff169050919050565b60035481565b60018054610720906110da565b80601f016020809104026020016040519081016040528092919081815260200182805461074c906110da565b80156107995780601f1061076e57610100808354040283529160200191610799565b820191906000526020600020905b81548152906001019060200180831161077c57829003601f168201915b505050505081565b6040517f08c379a00000000000000000000000000000000000000000000000000000000081526004016107d39061117d565b60405180910390fd5b600280546107e9906110da565b80601f0160208091040260200160405190810160405280929190818152602001828054610815906110da565b80156108625780601f1061083757610100808354040283529160200191610862565b820191906000526020600020905b81548152906001019060200180831161084557829003601f168201915b505050505081565b6060806060806000600460008781526020019081526020016000206040518060600160405290816000820180546108a0906110da565b80601f01602080910402602001604051908101604052809291908181526020018280546108cc906110da565b80156109195780601f106108ee57610100808354040283529160200191610919565b820191906000526020600020905b8154815290600101906020018083116108fc57829003601f168201915b50505050508152602001600182018054610932906110da565b80601f016020809104026020016040519081016040528092919081815260200182805461095e906110da565b80156109ab5780601f10610980576101008083540402835291602001916109ab565b820191906000526020600020905b81548152906001019060200180831161098e57829003601f168201915b505050505081526020016002820180546109c4906110da565b80601f01602080910402602001604051908101604052809291908181526020018280546109f0906110da565b8015610a3d5780601f10610a1257610100808354040283529160200191610a3d565b820191906000526020600020905b815481529060010190602001808311610a2057829003601f168201915b50505050508152505090508060000151816020015182604001516002808054610a65906110da565b80601f0160208091040260200160405190810160405280929190818152602001828054610a91906110da565b8015610ade5780601f10610ab357610100808354040283529160200191610ade565b820191906000526020600020905b815481529060010190602001808311610ac157829003601f168201915b505050505090509450945094509450509193509193565b60056020528060005260406000206000915054906101000a900473ffffffffffffffffffffffffffffffffffffffff1681565b600081519050919050565b600082825260208201905092915050565b60005b83811015610b62578082015181840152602081019050610b47565b60008484015250505050565b6000601f19601f8301169050919050565b6000610b8a82610b28565b610b948185610b33565b9350610ba4818560208601610b44565b610bad81610b6e565b840191505092915050565b60006020820190508181036000830152610bd28184610b7f565b905092915050565b6000604051905090565b600080fd5b600080fd5b600073ffffffffffffffffffffffffffffffffffffffff82169050919050565b6000610c1982610bee565b9050919050565b610c2981610c0e565b8114610c3457600080fd5b50565b600081359050610c4681610c20565b92915050565b6000819050919050565b610c5f81610c4c565b8114610c6a57600080fd5b50565b600081359050610c7c81610c56565b92915050565b60008060408385031215610c9957610c98610be4565b5b6000610ca785828601610c37565b9250506020610cb885828601610c6d565b9150509250929050565b600080600060608486031215610cdb57610cda610be4565b5b6000610ce986828701610c37565b9350506020610cfa86828701610c37565b9250506040610d0b86828701610c6d565b9150509250925092565b600080fd5b600080fd5b7f4e487b7100000000000000000000000000000000000000000000000000000000600052604160045260246000fd5b610d5782610b6e565b810181811067ffffffffffffffff82111715610d7657610d75610d1f565b5b80604052505050565b6000610d89610bda565b9050610d958282610d4e565b919050565b600067ffffffffffffffff821115610db557610db4610d1f565b5b610dbe82610b6e565b9050602081019050919050565b82818337600083830152505050565b6000610ded610de884610d9a565b610d7f565b905082815260208101848484011115610e0957610e08610d1a565b5b610e14848285610dcb565b509392505050565b600082601f830112610e3157610e30610d15565b5b8135610e41848260208601610dda565b91505092915050565b60008060008060808587031215610e6457610e63610be4565b5b6000610e7287828801610c37565b945050602085013567ffffffffffffffff811115610e9357610e92610be9565b5b610e9f87828801610e1c565b935050604085013567ffffffffffffffff811115610ec057610ebf610be9565b5b610ecc87828801610e1c565b925050606085013567ffffffffffffffff811115610eed57610eec610be9565b5b610ef987828801610e1c565b91505092959194509250565b600060208284031215610f1b57610f1a610be4565b5b6000610f2984828501610c6d565b91505092915050565b60006060820190508181036000830152610f4c8186610b7f565b90508181036020830152610f608185610b7f565b90508181036040830152610f748184610b7f565b9050949350505050565b610f8781610c0e565b82525050565b6000602082019050610fa26000830184610f7e565b92915050565b610fb181610c4c565b82525050565b6000602082019050610fcc6000830184610fa8565b92915050565b60008115159050919050565b610fe781610fd2565b8114610ff257600080fd5b50565b60008135905061100481610fde565b92915050565b6000806040838503121561102157611020610be4565b5b600061102f85828601610c37565b925050602061104085828601610ff5565b9150509250929050565b600060808201905081810360008301526110648187610b7f565b905081810360208301526110788186610b7f565b9050818103604083015261108c8185610b7f565b905081810360608301526110a08184610b7f565b905095945050505050565b7f4e487b7100000000000000000000000000000000000000000000000000000000600052602260045260246000fd5b600060028204905060018216806110f257607f821691505b602082108103611105576111046110ab565b5b50919050565b7f54686973204e465420697320736f756c626f756e6420616e642063616e6e6f7460008201527f20626520617070726f76656420666f72207472616e736665722e000000000000602082015250565b6000611167603a83610b33565b91506111728261110b565b604082019050919050565b600060208201905081810360008301526111968161115a565b9050919050565b7f54686973204e465420697320736f756c626f756e6420616e642063616e6e6f7460008201527f206265207472616e736665727265642e00000000000000000000000000000000602082015250565b60006111f9603083610b33565b91506112048261119d565b604082019050919050565b60006020820190508181036000830152611228816111ec565b9050919050565b60008190508160005260206000209050919050565b60006020601f8301049050919050565b600082821b905092915050565b6000600883026112917fffffffffffffffffffffffffffffffffffffffffffffffffffffffffffffffff82611254565b61129b8683611254565b95508019841693508086168417925050509392505050565b6000819050919050565b60006112d86112d36112ce84610c4c565b6112b3565b610c4c565b9050919050565b6000819050919050565b6112f2836112bd565b6113066112fe826112df565b848454611261565b825550505050565b600090565b61131b61130e565b6113268184846112e9565b505050565b5b8181101561134a5761133f600082611313565b60018101905061132c565b5050565b601f82111561138f576113608161122f565b61136984611244565b81016020851015611378578190505b61138c61138485611244565b83018261132b565b50505b505050565b600082821c905092915050565b60006113b260001984600802611394565b1980831691505092915050565b60006113cb83836113a1565b9150826002028217905092915050565b6113e482610b28565b67ffffffffffffffff8111156113fd576113fc610d1f565b5b61140782546110da565b61141282828561134e565b600060209050601f8311600181146114455760008415611433578287015190505b61143d85826113bf565b8655506114a5565b601f1984166114538661122f565b60005b8281101561147b57848901518255600182019150602085019450602081019050611456565b868310156114985784890151611494601f8916826113a1565b8355505b6001600288020188555050505b505050505050565b60006080820190506114c26000830187610fa8565b81810360208301526114d48186610b7f565b905081810360408301526114e88185610b7f565b905081810360608301526114fc8184610b7f565b905095945050505050565b7f4e487b7100000000000000000000000000000000000000000000000000000000600052601160045260246000fd5b600061154182610c4c565b91507fffffffffffffffffffffffffffffffffffffffffffffffffffffffffffffffff820361157357611572611507565b5b60018201905091905056fea26469706673582212203459334df9e6f8ebd51a5fd030c10259e02c2f1b28a18643d8f23a3eee737ae264736f6c634300081b003368747470733a2f2f697066732e696f2f697066732f516d5a5871395551705934567a5448794672774577505269694d4869476d5a724d6a6a765472376a7264586b70652f",
  "linkReferences": {},
  "deployedLinkReferences": {}
}