{"contracts/QuizApp.sol":{"QuizApp":{"abi":[{"inputs":[],"stateMutability":"nonpayable","type":"constructor"},{"anonymous":false,"inputs":[{"indexed":false,"internalType":"uint256","name":"quizId","type":"uint256"},{"indexed":false,"internalType":"address","name":"participant","type":"address"},{"indexed":false,"internalType":"uint256","name":"score","type":"uint256"}],"name":"ParticipantJoined","type":"event"},{"anonymous":false,"inputs":[{"indexed":false,"internalType":"uint256","name":"quizId","type":"uint256"},{"indexed":false,"internalType":"string","name":"qid","type":"string"},{"indexed":false,"internalType":"address","name":"creator","type":"address"},{"indexed":false,"internalType":"uint256","name":"budget","type":"uint256"},{"indexed":false,"internalType":"uint256","name":"questionsCount","type":"uint256"}],"name":"QuizCreated","type":"event"},{"anonymous":false,"inputs":[{"indexed":false,"internalType":"uint256","name":"quizId","type":"uint256"},{"indexed":false,"internalType":"uint256","name":"totalDistributed","type":"uint256"}],"name":"QuizEnded","type":"event"},{"inputs":[{"internalType":"string","name":"_qid","type":"string"},{"internalType":"uint256","name":"_questionsCount","type":"uint256"},{"internalType":"uint256","name":"_rewardPerPoint","type":"uint256"}],"name":"createQuiz","outputs":[],"stateMutability":"payable","type":"function"},{"inputs":[{"internalType":"uint256","name":"_quizId","type":"uint256"}],"name":"endQuiz","outputs":[],"stateMutability":"nonpayable","type":"function"},{"inputs":[],"name":"getAllQuizzes","outputs":[{"internalType":"uint256[]","name":"","type":"uint256[]"},{"internalType":"string[]","name":"","type":"string[]"}],"stateMutability":"view","type":"function"},{"inputs":[{"internalType":"uint256","name":"_quizId","type":"uint256"}],"name":"getParticipants","outputs":[{"components":[{"internalType":"address","name":"addr","type":"address"},{"internalType":"uint256","name":"score","type":"uint256"}],"internalType":"struct QuizApp.Participant[]","name":"","type":"tuple[]"}],"stateMutability":"view","type":"function"},{"inputs":[{"internalType":"uint256","name":"_quizId","type":"uint256"},{"internalType":"uint256","name":"_score","type":"uint256"}],"name":"joinQuiz","outputs":[],"stateMutability":"nonpayable","type":"function"},{"inputs":[],"name":"owner","outputs":[{"internalType":"address","name":"","type":"address"}],"stateMutability":"view","type":"function"},{"inputs":[],"name":"quizIdCounter","outputs":[{"internalType":"uint256","name":"","type":"uint256"}],"stateMutability":"view","type":"function"},{"inputs":[{"internalType":"uint256","name":"","type":"uint256"}],"name":"quizzes","outputs":[{"internalType":"uint256","name":"id","type":"uint256"},{"internalType":"string","name":"qid","type":"string"},{"internalType":"address","name":"creator","type":"address"},{"internalType":"uint256","name":"budget","type":"uint256"},{"internalType":"uint256","name":"questionsCount","type":"uint256"},{"internalType":"uint256","name":"participantCount","type":"uint256"},{"internalType":"uint256","name":"rewardPerPoint","type":"uint256"},{"internalType":"uint256","name":"totalScore","type":"uint256"},{"internalType":"bool","name":"active","type":"bool"}],"stateMutability":"view","type":"function"}],"evm":{"bytecode":{"linkReferences":{},"object":"6080604052348015600f57600080fd5b50336000806101000a81548173ffffffffffffffffffffffffffffffffffffffff021916908373ffffffffffffffffffffffffffffffffffffffff16021790555060018081905550612255806100666000396000f3fe60806040526004361061007b5760003560e01c806390c588e41161004e57806390c588e414610145578063b8f154511461016e578063c1e3bd3e14610199578063d8187d05146101d65761007b565b80636a4af0fa1461008057806383b83ac3146100ac57806388409afa146100d55780638da5cb5b1461011a575b600080fd5b34801561008c57600080fd5b506100956101f2565b6040516100a3929190611350565b60405180910390f35b3480156100b857600080fd5b506100d360048036038101906100ce91906113bd565b6103e4565b005b3480156100e157600080fd5b506100fc60048036038101906100f791906113fd565b6107a0565b604051610111999897969594939291906114df565b60405180910390f35b34801561012657600080fd5b5061012f6108a3565b60405161013c9190611573565b60405180910390f35b34801561015157600080fd5b5061016c600480360381019061016791906113fd565b6108c7565b005b34801561017a57600080fd5b50610183610d2a565b604051610190919061158e565b60405180910390f35b3480156101a557600080fd5b506101c060048036038101906101bb91906113fd565b610d30565b6040516101cd9190611696565b60405180910390f35b6101f060048036038101906101eb919061171d565b610eac565b005b60608060006001805461020591906117c0565b67ffffffffffffffff81111561021e5761021d6117f4565b5b60405190808252806020026020018201604052801561024c5781602001602082028036833780820191505090505b50905060006001805461025f91906117c0565b67ffffffffffffffff811115610278576102776117f4565b5b6040519080825280602002602001820160405280156102ab57816020015b60608152602001906001900390816102965790505b5090506000600190505b6001548110156103d7576002600082815260200190815260200160002060000154836001836102e491906117c0565b815181106102f5576102f4611823565b5b60200260200101818152505060026000828152602001908152602001600020600101805461032290611881565b80601f016020809104026020016040519081016040528092919081815260200182805461034e90611881565b801561039b5780601f106103705761010080835404028352916020019161039b565b820191906000526020600020905b81548152906001019060200180831161037e57829003601f168201915b5050505050826001836103ae91906117c0565b815181106103bf576103be611823565b5b602002602001018190525080806001019150506102b5565b5081819350935050509091565b81600073ffffffffffffffffffffffffffffffffffffffff166002600083815260200190815260200160002060020160009054906101000a900473ffffffffffffffffffffffffffffffffffffffff1673ffffffffffffffffffffffffffffffffffffffff160361048a576040517f08c379a0000000000000000000000000000000000000000000000000000000008152600401610481906118fe565b60405180910390fd5b82600115156002600083815260200190815260200160002060080160009054906101000a900460ff161515146104f5576040517f08c379a00000000000000000000000000000000000000000000000000000000081526004016104ec9061196a565b60405180910390fd5b600060026000868152602001908152602001600020905080600a0160003373ffffffffffffffffffffffffffffffffffffffff1673ffffffffffffffffffffffffffffffffffffffff16815260200190815260200160002060009054906101000a900460ff161561059b576040517f08c379a0000000000000000000000000000000000000000000000000000000008152600401610592906119d6565b60405180910390fd5b600084116105de576040517f08c379a00000000000000000000000000000000000000000000000000000000081526004016105d590611a42565b60405180910390fd5b8060090160405180604001604052803373ffffffffffffffffffffffffffffffffffffffff16815260200186815250908060018154018082558091505060019003906000526020600020906002020160009091909190915060008201518160000160006101000a81548173ffffffffffffffffffffffffffffffffffffffff021916908373ffffffffffffffffffffffffffffffffffffffff160217905550602082015181600101555050600181600a0160003373ffffffffffffffffffffffffffffffffffffffff1673ffffffffffffffffffffffffffffffffffffffff16815260200190815260200160002060006101000a81548160ff0219169083151502179055508381600b0160003373ffffffffffffffffffffffffffffffffffffffff1673ffffffffffffffffffffffffffffffffffffffff168152602001908152602001600020819055508381600701600082825461073d9190611a62565b9250508190555080600501600081548092919061075990611a96565b91905055507f338e0cd33c4e120afcd73f43f082fd8940ed67ac35180d278d2eb4f3ed51d92e85338660405161079193929190611ade565b60405180910390a15050505050565b60026020528060005260406000206000915090508060000154908060010180546107c990611881565b80601f01602080910402602001604051908101604052809291908181526020018280546107f590611881565b80156108425780601f1061081757610100808354040283529160200191610842565b820191906000526020600020905b81548152906001019060200180831161082557829003601f168201915b5050505050908060020160009054906101000a900473ffffffffffffffffffffffffffffffffffffffff16908060030154908060040154908060050154908060060154908060070154908060080160009054906101000a900460ff16905089565b60008054906101000a900473ffffffffffffffffffffffffffffffffffffffff1681565b803373ffffffffffffffffffffffffffffffffffffffff166002600083815260200190815260200160002060020160009054906101000a900473ffffffffffffffffffffffffffffffffffffffff1673ffffffffffffffffffffffffffffffffffffffff161461096c576040517f08c379a000000000000000000000000000000000000000000000000000000000815260040161096390611b87565b60405180910390fd5b81600073ffffffffffffffffffffffffffffffffffffffff166002600083815260200190815260200160002060020160009054906101000a900473ffffffffffffffffffffffffffffffffffffffff1673ffffffffffffffffffffffffffffffffffffffff1603610a12576040517f08c379a0000000000000000000000000000000000000000000000000000000008152600401610a09906118fe565b60405180910390fd5b82600115156002600083815260200190815260200160002060080160009054906101000a900460ff16151514610a7d576040517f08c379a0000000000000000000000000000000000000000000000000000000008152600401610a749061196a565b60405180910390fd5b60006002600086815260200190815260200160002090506000816009018054905011610ade576040517f08c379a0000000000000000000000000000000000000000000000000000000008152600401610ad590611bf3565b60405180910390fd5b6000816007015411610b25576040517f08c379a0000000000000000000000000000000000000000000000000000000008152600401610b1c90611c85565b60405180910390fd5b60008160080160006101000a81548160ff0219169083151502179055506000805b8260090180549050811015610c68576000836009018281548110610b6d57610b6c611823565b5b90600052602060002090600202016040518060400160405290816000820160009054906101000a900473ffffffffffffffffffffffffffffffffffffffff1673ffffffffffffffffffffffffffffffffffffffff1673ffffffffffffffffffffffffffffffffffffffff1681526020016001820154815250509050600084600601548260200151610bfe9190611ca5565b90508084610c0c9190611a62565b9350816000015173ffffffffffffffffffffffffffffffffffffffff166108fc829081150290604051600060405180830381858888f19350505050158015610c58573d6000803e3d6000fd5b5050508080600101915050610b46565b506000818360030154610c7b91906117c0565b90508260020160009054906101000a900473ffffffffffffffffffffffffffffffffffffffff1673ffffffffffffffffffffffffffffffffffffffff166108fc829081150290604051600060405180830381858888f19350505050158015610ce7573d6000803e3d6000fd5b507fa079fdba1bc1af068f704947986666feb435d952a5db81d4109e9e7d070efbdb8783604051610d19929190611ce7565b60405180910390a150505050505050565b60015481565b606081600073ffffffffffffffffffffffffffffffffffffffff166002600083815260200190815260200160002060020160009054906101000a900473ffffffffffffffffffffffffffffffffffffffff1673ffffffffffffffffffffffffffffffffffffffff1603610dd8576040517f08c379a0000000000000000000000000000000000000000000000000000000008152600401610dcf906118fe565b60405180910390fd5b60026000848152602001908152602001600020600901805480602002602001604051908101604052809291908181526020016000905b82821015610ea057838290600052602060002090600202016040518060400160405290816000820160009054906101000a900473ffffffffffffffffffffffffffffffffffffffff1673ffffffffffffffffffffffffffffffffffffffff1673ffffffffffffffffffffffffffffffffffffffff16815260200160018201548152505081526020019060010190610e0e565b50505050915050919050565b60003411610eef576040517f08c379a0000000000000000000000000000000000000000000000000000000008152600401610ee690611d5c565b60405180910390fd5b60008211610f32576040517f08c379a0000000000000000000000000000000000000000000000000000000008152600401610f2990611dee565b60405180910390fd5b60008111610f75576040517f08c379a0000000000000000000000000000000000000000000000000000000008152600401610f6c90611e80565b60405180910390fd5b60006064600834610f869190611ca5565b610f909190611ecf565b905060008054906101000a900473ffffffffffffffffffffffffffffffffffffffff1673ffffffffffffffffffffffffffffffffffffffff166108fc829081150290604051600060405180830381858888f19350505050158015610ff8573d6000803e3d6000fd5b506000813461100791906117c0565b905060006001549050600060026000838152602001908152602001600020905081816000018190555087878260010191826110439291906120b7565b50338160020160006101000a81548173ffffffffffffffffffffffffffffffffffffffff021916908373ffffffffffffffffffffffffffffffffffffffff16021790555082816003018190555085816004018190555084816006018190555060018160080160006101000a81548160ff0219169083151502179055506000816007018190555060008160050181905550600160008154809291906110e690611a96565b91905055507ff826b5bf3215582e86e92ed5a9b21a37350df8294d7ba9347c787df4912efc9882898933878b604051611124969594939291906121c3565b60405180910390a15050505050505050565b600081519050919050565b600082825260208201905092915050565b6000819050602082019050919050565b6000819050919050565b61117581611162565b82525050565b6000611187838361116c565b60208301905092915050565b6000602082019050919050565b60006111ab82611136565b6111b58185611141565b93506111c083611152565b8060005b838110156111f15781516111d8888261117b565b97506111e383611193565b9250506001810190506111c4565b5085935050505092915050565b600081519050919050565b600082825260208201905092915050565b6000819050602082019050919050565b600081519050919050565b600082825260208201905092915050565b60005b83811015611264578082015181840152602081019050611249565b60008484015250505050565b6000601f19601f8301169050919050565b600061128c8261122a565b6112968185611235565b93506112a6818560208601611246565b6112af81611270565b840191505092915050565b60006112c68383611281565b905092915050565b6000602082019050919050565b60006112e6826111fe565b6112f08185611209565b9350836020820285016113028561121a565b8060005b8581101561133e578484038952815161131f85826112ba565b945061132a836112ce565b925060208a01995050600181019050611306565b50829750879550505050505092915050565b6000604082019050818103600083015261136a81856111a0565b9050818103602083015261137e81846112db565b90509392505050565b600080fd5b600080fd5b61139a81611162565b81146113a557600080fd5b50565b6000813590506113b781611391565b92915050565b600080604083850312156113d4576113d3611387565b5b60006113e2858286016113a8565b92505060206113f3858286016113a8565b9150509250929050565b60006020828403121561141357611412611387565b5b6000611421848285016113a8565b91505092915050565b61143381611162565b82525050565b600082825260208201905092915050565b60006114558261122a565b61145f8185611439565b935061146f818560208601611246565b61147881611270565b840191505092915050565b600073ffffffffffffffffffffffffffffffffffffffff82169050919050565b60006114ae82611483565b9050919050565b6114be816114a3565b82525050565b60008115159050919050565b6114d9816114c4565b82525050565b6000610120820190506114f5600083018c61142a565b8181036020830152611507818b61144a565b9050611516604083018a6114b5565b611523606083018961142a565b611530608083018861142a565b61153d60a083018761142a565b61154a60c083018661142a565b61155760e083018561142a565b6115656101008301846114d0565b9a9950505050505050505050565b600060208201905061158860008301846114b5565b92915050565b60006020820190506115a3600083018461142a565b92915050565b600081519050919050565b600082825260208201905092915050565b6000819050602082019050919050565b6115de816114a3565b82525050565b6040820160008201516115fa60008501826115d5565b50602082015161160d602085018261116c565b50505050565b600061161f83836115e4565b60408301905092915050565b6000602082019050919050565b6000611643826115a9565b61164d81856115b4565b9350611658836115c5565b8060005b838110156116895781516116708882611613565b975061167b8361162b565b92505060018101905061165c565b5085935050505092915050565b600060208201905081810360008301526116b08184611638565b905092915050565b600080fd5b600080fd5b600080fd5b60008083601f8401126116dd576116dc6116b8565b5b8235905067ffffffffffffffff8111156116fa576116f96116bd565b5b602083019150836001820283011115611716576117156116c2565b5b9250929050565b6000806000806060858703121561173757611736611387565b5b600085013567ffffffffffffffff8111156117555761175461138c565b5b611761878288016116c7565b94509450506020611774878288016113a8565b9250506040611785878288016113a8565b91505092959194509250565b7f4e487b7100000000000000000000000000000000000000000000000000000000600052601160045260246000fd5b60006117cb82611162565b91506117d683611162565b92508282039050818111156117ee576117ed611791565b5b92915050565b7f4e487b7100000000000000000000000000000000000000000000000000000000600052604160045260246000fd5b7f4e487b7100000000000000000000000000000000000000000000000000000000600052603260045260246000fd5b7f4e487b7100000000000000000000000000000000000000000000000000000000600052602260045260246000fd5b6000600282049050600182168061189957607f821691505b6020821081036118ac576118ab611852565b5b50919050565b7f5175697a20646f6573206e6f7420657869737400000000000000000000000000600082015250565b60006118e8601383611439565b91506118f3826118b2565b602082019050919050565b60006020820190508181036000830152611917816118db565b9050919050565b7f5175697a206973206e6f74206163746976650000000000000000000000000000600082015250565b6000611954601283611439565b915061195f8261191e565b602082019050919050565b6000602082019050818103600083015261198381611947565b9050919050565b7f416c726561647920706172746963697061746564000000000000000000000000600082015250565b60006119c0601483611439565b91506119cb8261198a565b602082019050919050565b600060208201905081810360008301526119ef816119b3565b9050919050565b7f53636f7265206d7573742062652067726561746572207468616e203000000000600082015250565b6000611a2c601c83611439565b9150611a37826119f6565b602082019050919050565b60006020820190508181036000830152611a5b81611a1f565b9050919050565b6000611a6d82611162565b9150611a7883611162565b9250828201905080821115611a9057611a8f611791565b5b92915050565b6000611aa182611162565b91507fffffffffffffffffffffffffffffffffffffffffffffffffffffffffffffffff8203611ad357611ad2611791565b5b600182019050919050565b6000606082019050611af3600083018661142a565b611b0060208301856114b5565b611b0d604083018461142a565b949350505050565b7f4f6e6c7920746865207175697a2063726561746f722063616e20706572666f7260008201527f6d207468697320616374696f6e00000000000000000000000000000000000000602082015250565b6000611b71602d83611439565b9150611b7c82611b15565b604082019050919050565b60006020820190508181036000830152611ba081611b64565b9050919050565b7f4e6f207061727469636970616e747320746f2064697374726962757465000000600082015250565b6000611bdd601d83611439565b9150611be882611ba7565b602082019050919050565b60006020820190508181036000830152611c0c81611bd0565b9050919050565b7f546f74616c2073636f7265206d7573742062652067726561746572207468616e60008201527f2030000000000000000000000000000000000000000000000000000000000000602082015250565b6000611c6f602283611439565b9150611c7a82611c13565b604082019050919050565b60006020820190508181036000830152611c9e81611c62565b9050919050565b6000611cb082611162565b9150611cbb83611162565b9250828202611cc981611162565b91508282048414831517611ce057611cdf611791565b5b5092915050565b6000604082019050611cfc600083018561142a565b611d09602083018461142a565b9392505050565b7f427564676574206d7573742062652067726561746572207468616e2030000000600082015250565b6000611d46601d83611439565b9150611d5182611d10565b602082019050919050565b60006020820190508181036000830152611d7581611d39565b9050919050565b7f5468657265206d757374206265206174206c65617374206f6e6520717565737460008201527f696f6e0000000000000000000000000000000000000000000000000000000000602082015250565b6000611dd8602383611439565b9150611de382611d7c565b604082019050919050565b60006020820190508181036000830152611e0781611dcb565b9050919050565b7f5265776172642070657220706f696e74206d757374206265206772656174657260008201527f207468616e203000000000000000000000000000000000000000000000000000602082015250565b6000611e6a602783611439565b9150611e7582611e0e565b604082019050919050565b60006020820190508181036000830152611e9981611e5d565b9050919050565b7f4e487b7100000000000000000000000000000000000000000000000000000000600052601260045260246000fd5b6000611eda82611162565b9150611ee583611162565b925082611ef557611ef4611ea0565b5b828204905092915050565b600082905092915050565b60008190508160005260206000209050919050565b60006020601f8301049050919050565b600082821b905092915050565b600060088302611f6d7fffffffffffffffffffffffffffffffffffffffffffffffffffffffffffffffff82611f30565b611f778683611f30565b95508019841693508086168417925050509392505050565b6000819050919050565b6000611fb4611faf611faa84611162565b611f8f565b611162565b9050919050565b6000819050919050565b611fce83611f99565b611fe2611fda82611fbb565b848454611f3d565b825550505050565b600090565b611ff7611fea565b612002818484611fc5565b505050565b5b818110156120265761201b600082611fef565b600181019050612008565b5050565b601f82111561206b5761203c81611f0b565b61204584611f20565b81016020851015612054578190505b61206861206085611f20565b830182612007565b50505b505050565b600082821c905092915050565b600061208e60001984600802612070565b1980831691505092915050565b60006120a7838361207d565b9150826002028217905092915050565b6120c18383611f00565b67ffffffffffffffff8111156120da576120d96117f4565b5b6120e48254611881565b6120ef82828561202a565b6000601f83116001811461211e576000841561210c578287013590505b612116858261209b565b86555061217e565b601f19841661212c86611f0b565b60005b828110156121545784890135825560018201915060208501945060208101905061212f565b86831015612171578489013561216d601f89168261207d565b8355505b6001600288020188555050505b50505050505050565b82818337600083830152505050565b60006121a28385611439565b93506121af838584612187565b6121b883611270565b840190509392505050565b600060a0820190506121d8600083018961142a565b81810360208301526121eb818789612196565b90506121fa60408301866114b5565b612207606083018561142a565b612214608083018461142a565b97965050505050505056fea26469706673582212206d6e3d77d852fb60b1aeddc043b8914ff2b36c4134511d7f030d6708bd0b8e1764736f6c634300081b0033","opcodes":"PUSH1 0x80 PUSH1 0x40 MSTORE CALLVALUE DUP1 ISZERO PUSH1 0xF JUMPI PUSH1 0x0 DUP1 REVERT JUMPDEST POP CALLER PUSH1 0x0 DUP1 PUSH2 0x100 EXP DUP2 SLOAD DUP2 PUSH20 0xFFFFFFFFFFFFFFFFFFFFFFFFFFFFFFFFFFFFFFFF MUL NOT AND SWAP1 DUP4 PUSH20 0xFFFFFFFFFFFFFFFFFFFFFFFFFFFFFFFFFFFFFFFF AND MUL OR SWAP1 SSTORE POP PUSH1 0x1 DUP1 DUP2 SWAP1 SSTORE POP PUSH2 0x2255 DUP1 PUSH2 0x66 PUSH1 0x0 CODECOPY PUSH1 0x0 RETURN INVALID PUSH1 0x80 PUSH1 0x40 MSTORE PUSH1 0x4 CALLDATASIZE LT PUSH2 0x7B JUMPI PUSH1 0x0 CALLDATALOAD PUSH1 0xE0 SHR DUP1 PUSH4 0x90C588E4 GT PUSH2 0x4E JUMPI DUP1 PUSH4 0x90C588E4 EQ PUSH2 0x145 JUMPI DUP1 PUSH4 0xB8F15451 EQ PUSH2 0x16E JUMPI DUP1 PUSH4 0xC1E3BD3E EQ PUSH2 0x199 JUMPI DUP1 PUSH4 0xD8187D05 EQ PUSH2 0x1D6 JUMPI PUSH2 0x7B JUMP JUMPDEST DUP1 PUSH4 0x6A4AF0FA EQ PUSH2 0x80 JUMPI DUP1 PUSH4 0x83B83AC3 EQ PUSH2 0xAC JUMPI DUP1 PUSH4 0x88409AFA EQ PUSH2 0xD5 JUMPI DUP1 PUSH4 0x8DA5CB5B EQ PUSH2 0x11A JUMPI JUMPDEST PUSH1 0x0 DUP1 REVERT JUMPDEST CALLVALUE DUP1 ISZERO PUSH2 0x8C JUMPI PUSH1 0x0 DUP1 REVERT JUMPDEST POP PUSH2 0x95 PUSH2 0x1F2 JUMP JUMPDEST PUSH1 0x40 MLOAD PUSH2 0xA3 SWAP3 SWAP2 SWAP1 PUSH2 0x1350 JUMP JUMPDEST PUSH1 0x40 MLOAD DUP1 SWAP2 SUB SWAP1 RETURN JUMPDEST CALLVALUE DUP1 ISZERO PUSH2 0xB8 JUMPI PUSH1 0x0 DUP1 REVERT JUMPDEST POP PUSH2 0xD3 PUSH1 0x4 DUP1 CALLDATASIZE SUB DUP2 ADD SWAP1 PUSH2 0xCE SWAP2 SWAP1 PUSH2 0x13BD JUMP JUMPDEST PUSH2 0x3E4 JUMP JUMPDEST STOP JUMPDEST CALLVALUE DUP1 ISZERO PUSH2 0xE1 JUMPI PUSH1 0x0 DUP1 REVERT JUMPDEST POP PUSH2 0xFC PUSH1 0x4 DUP1 CALLDATASIZE SUB DUP2 ADD SWAP1 PUSH2 0xF7 SWAP2 SWAP1 PUSH2 0x13FD JUMP JUMPDEST PUSH2 0x7A0 JUMP JUMPDEST PUSH1 0x40 MLOAD PUSH2 0x111 SWAP10 SWAP9 SWAP8 SWAP7 SWAP6 SWAP5 SWAP4 SWAP3 SWAP2 SWAP1 PUSH2 0x14DF JUMP JUMPDEST PUSH1 0x40 MLOAD DUP1 SWAP2 SUB SWAP1 RETURN JUMPDEST CALLVALUE DUP1 ISZERO PUSH2 0x126 JUMPI PUSH1 0x0 DUP1 REVERT JUMPDEST POP PUSH2 0x12F PUSH2 0x8A3 JUMP JUMPDEST PUSH1 0x40 MLOAD PUSH2 0x13C SWAP2 SWAP1 PUSH2 0x1573 JUMP JUMPDEST PUSH1 0x40 MLOAD DUP1 SWAP2 SUB SWAP1 RETURN JUMPDEST CALLVALUE DUP1 ISZERO PUSH2 0x151 JUMPI PUSH1 0x0 DUP1 REVERT JUMPDEST POP PUSH2 0x16C PUSH1 0x4 DUP1 CALLDATASIZE SUB DUP2 ADD SWAP1 PUSH2 0x167 SWAP2 SWAP1 PUSH2 0x13FD JUMP JUMPDEST PUSH2 0x8C7 JUMP JUMPDEST STOP JUMPDEST CALLVALUE DUP1 ISZERO PUSH2 0x17A JUMPI PUSH1 0x0 DUP1 REVERT JUMPDEST POP PUSH2 0x183 PUSH2 0xD2A JUMP JUMPDEST PUSH1 0x40 MLOAD PUSH2 0x190 SWAP2 SWAP1 PUSH2 0x158E JUMP JUMPDEST PUSH1 0x40 MLOAD DUP1 SWAP2 SUB SWAP1 RETURN JUMPDEST CALLVALUE DUP1 ISZERO PUSH2 0x1A5 JUMPI PUSH1 0x0 DUP1 REVERT JUMPDEST POP PUSH2 0x1C0 PUSH1 0x4 DUP1 CALLDATASIZE SUB DUP2 ADD SWAP1 PUSH2 0x1BB SWAP2 SWAP1 PUSH2 0x13FD JUMP JUMPDEST PUSH2 0xD30 JUMP JUMPDEST PUSH1 0x40 MLOAD PUSH2 0x1CD SWAP2 SWAP1 PUSH2 0x1696 JUMP JUMPDEST PUSH1 0x40 MLOAD DUP1 SWAP2 SUB SWAP1 RETURN JUMPDEST PUSH2 0x1F0 PUSH1 0x4 DUP1 CALLDATASIZE SUB DUP2 ADD SWAP1 PUSH2 0x1EB SWAP2 SWAP1 PUSH2 0x171D JUMP JUMPDEST PUSH2 0xEAC JUMP JUMPDEST STOP JUMPDEST PUSH1 0x60 DUP1 PUSH1 0x0 PUSH1 0x1 DUP1 SLOAD PUSH2 0x205 SWAP2 SWAP1 PUSH2 0x17C0 JUMP JUMPDEST PUSH8 0xFFFFFFFFFFFFFFFF DUP2 GT ISZERO PUSH2 0x21E JUMPI PUSH2 0x21D PUSH2 0x17F4 JUMP JUMPDEST JUMPDEST PUSH1 0x40 MLOAD SWAP1 DUP1 DUP3 MSTORE DUP1 PUSH1 0x20 MUL PUSH1 0x20 ADD DUP3 ADD PUSH1 0x40 MSTORE DUP1 ISZERO PUSH2 0x24C JUMPI DUP2 PUSH1 0x20 ADD PUSH1 0x20 DUP3 MUL DUP1 CALLDATASIZE DUP4 CALLDATACOPY DUP1 DUP3 ADD SWAP2 POP POP SWAP1 POP JUMPDEST POP SWAP1 POP PUSH1 0x0 PUSH1 0x1 DUP1 SLOAD PUSH2 0x25F SWAP2 SWAP1 PUSH2 0x17C0 JUMP JUMPDEST PUSH8 0xFFFFFFFFFFFFFFFF DUP2 GT ISZERO PUSH2 0x278 JUMPI PUSH2 0x277 PUSH2 0x17F4 JUMP JUMPDEST JUMPDEST PUSH1 0x40 MLOAD SWAP1 DUP1 DUP3 MSTORE DUP1 PUSH1 0x20 MUL PUSH1 0x20 ADD DUP3 ADD PUSH1 0x40 MSTORE DUP1 ISZERO PUSH2 0x2AB JUMPI DUP2 PUSH1 0x20 ADD JUMPDEST PUSH1 0x60 DUP2 MSTORE PUSH1 0x20 ADD SWAP1 PUSH1 0x1 SWAP1 SUB SWAP1 DUP2 PUSH2 0x296 JUMPI SWAP1 POP JUMPDEST POP SWAP1 POP PUSH1 0x0 PUSH1 0x1 SWAP1 POP JUMPDEST PUSH1 0x1 SLOAD DUP2 LT ISZERO PUSH2 0x3D7 JUMPI PUSH1 0x2 PUSH1 0x0 DUP3 DUP2 MSTORE PUSH1 0x20 ADD SWAP1 DUP2 MSTORE PUSH1 0x20 ADD PUSH1 0x0 KECCAK256 PUSH1 0x0 ADD SLOAD DUP4 PUSH1 0x1 DUP4 PUSH2 0x2E4 SWAP2 SWAP1 PUSH2 0x17C0 JUMP JUMPDEST DUP2 MLOAD DUP2 LT PUSH2 0x2F5 JUMPI PUSH2 0x2F4 PUSH2 0x1823 JUMP JUMPDEST JUMPDEST PUSH1 0x20 MUL PUSH1 0x20 ADD ADD DUP2 DUP2 MSTORE POP POP PUSH1 0x2 PUSH1 0x0 DUP3 DUP2 MSTORE PUSH1 0x20 ADD SWAP1 DUP2 MSTORE PUSH1 0x20 ADD PUSH1 0x0 KECCAK256 PUSH1 0x1 ADD DUP1 SLOAD PUSH2 0x322 SWAP1 PUSH2 0x1881 JUMP JUMPDEST DUP1 PUSH1 0x1F ADD PUSH1 0x20 DUP1 SWAP2 DIV MUL PUSH1 0x20 ADD PUSH1 0x40 MLOAD SWAP1 DUP2 ADD PUSH1 0x40 MSTORE DUP1 SWAP3 SWAP2 SWAP1 DUP2 DUP2 MSTORE PUSH1 0x20 ADD DUP3 DUP1 SLOAD PUSH2 0x34E SWAP1 PUSH2 0x1881 JUMP JUMPDEST DUP1 ISZERO PUSH2 0x39B JUMPI DUP1 PUSH1 0x1F LT PUSH2 0x370 JUMPI PUSH2 0x100 DUP1 DUP4 SLOAD DIV MUL DUP4 MSTORE SWAP2 PUSH1 0x20 ADD SWAP2 PUSH2 0x39B JUMP JUMPDEST DUP3 ADD SWAP2 SWAP1 PUSH1 0x0 MSTORE PUSH1 0x20 PUSH1 0x0 KECCAK256 SWAP1 JUMPDEST DUP2 SLOAD DUP2 MSTORE SWAP1 PUSH1 0x1 ADD SWAP1 PUSH1 0x20 ADD DUP1 DUP4 GT PUSH2 0x37E JUMPI DUP3 SWAP1 SUB PUSH1 0x1F AND DUP3 ADD SWAP2 JUMPDEST POP POP POP POP POP DUP3 PUSH1 0x1 DUP4 PUSH2 0x3AE SWAP2 SWAP1 PUSH2 0x17C0 JUMP JUMPDEST DUP2 MLOAD DUP2 LT PUSH2 0x3BF JUMPI PUSH2 0x3BE PUSH2 0x1823 JUMP JUMPDEST JUMPDEST PUSH1 0x20 MUL PUSH1 0x20 ADD ADD DUP2 SWAP1 MSTORE POP DUP1 DUP1 PUSH1 0x1 ADD SWAP2 POP POP PUSH2 0x2B5 JUMP JUMPDEST POP DUP2 DUP2 SWAP4 POP SWAP4 POP POP POP SWAP1 SWAP2 JUMP JUMPDEST DUP2 PUSH1 0x0 PUSH20 0xFFFFFFFFFFFFFFFFFFFFFFFFFFFFFFFFFFFFFFFF AND PUSH1 0x2 PUSH1 0x0 DUP4 DUP2 MSTORE PUSH1 0x20 ADD SWAP1 DUP2 MSTORE PUSH1 0x20 ADD PUSH1 0x0 KECCAK256 PUSH1 0x2 ADD PUSH1 0x0 SWAP1 SLOAD SWAP1 PUSH2 0x100 EXP SWAP1 DIV PUSH20 0xFFFFFFFFFFFFFFFFFFFFFFFFFFFFFFFFFFFFFFFF AND PUSH20 0xFFFFFFFFFFFFFFFFFFFFFFFFFFFFFFFFFFFFFFFF AND SUB PUSH2 0x48A JUMPI PUSH1 0x40 MLOAD PUSH32 0x8C379A000000000000000000000000000000000000000000000000000000000 DUP2 MSTORE PUSH1 0x4 ADD PUSH2 0x481 SWAP1 PUSH2 0x18FE JUMP JUMPDEST PUSH1 0x40 MLOAD DUP1 SWAP2 SUB SWAP1 REVERT JUMPDEST DUP3 PUSH1 0x1 ISZERO ISZERO PUSH1 0x2 PUSH1 0x0 DUP4 DUP2 MSTORE PUSH1 0x20 ADD SWAP1 DUP2 MSTORE PUSH1 0x20 ADD PUSH1 0x0 KECCAK256 PUSH1 0x8 ADD PUSH1 0x0 SWAP1 SLOAD SWAP1 PUSH2 0x100 EXP SWAP1 DIV PUSH1 0xFF AND ISZERO ISZERO EQ PUSH2 0x4F5 JUMPI PUSH1 0x40 MLOAD PUSH32 0x8C379A000000000000000000000000000000000000000000000000000000000 DUP2 MSTORE PUSH1 0x4 ADD PUSH2 0x4EC SWAP1 PUSH2 0x196A JUMP JUMPDEST PUSH1 0x40 MLOAD DUP1 SWAP2 SUB SWAP1 REVERT JUMPDEST PUSH1 0x0 PUSH1 0x2 PUSH1 0x0 DUP7 DUP2 MSTORE PUSH1 0x20 ADD SWAP1 DUP2 MSTORE PUSH1 0x20 ADD PUSH1 0x0 KECCAK256 SWAP1 POP DUP1 PUSH1 0xA ADD PUSH1 0x0 CALLER PUSH20 0xFFFFFFFFFFFFFFFFFFFFFFFFFFFFFFFFFFFFFFFF AND PUSH20 0xFFFFFFFFFFFFFFFFFFFFFFFFFFFFFFFFFFFFFFFF AND DUP2 MSTORE PUSH1 0x20 ADD SWAP1 DUP2 MSTORE PUSH1 0x20 ADD PUSH1 0x0 KECCAK256 PUSH1 0x0 SWAP1 SLOAD SWAP1 PUSH2 0x100 EXP SWAP1 DIV PUSH1 0xFF AND ISZERO PUSH2 0x59B JUMPI PUSH1 0x40 MLOAD PUSH32 0x8C379A000000000000000000000000000000000000000000000000000000000 DUP2 MSTORE PUSH1 0x4 ADD PUSH2 0x592 SWAP1 PUSH2 0x19D6 JUMP JUMPDEST PUSH1 0x40 MLOAD DUP1 SWAP2 SUB SWAP1 REVERT JUMPDEST PUSH1 0x0 DUP5 GT PUSH2 0x5DE JUMPI PUSH1 0x40 MLOAD PUSH32 0x8C379A000000000000000000000000000000000000000000000000000000000 DUP2 MSTORE PUSH1 0x4 ADD PUSH2 0x5D5 SWAP1 PUSH2 0x1A42 JUMP JUMPDEST PUSH1 0x40 MLOAD DUP1 SWAP2 SUB SWAP1 REVERT JUMPDEST DUP1 PUSH1 0x9 ADD PUSH1 0x40 MLOAD DUP1 PUSH1 0x40 ADD PUSH1 0x40 MSTORE DUP1 CALLER PUSH20 0xFFFFFFFFFFFFFFFFFFFFFFFFFFFFFFFFFFFFFFFF AND DUP2 MSTORE PUSH1 0x20 ADD DUP7 DUP2 MSTORE POP SWAP1 DUP1 PUSH1 0x1 DUP2 SLOAD ADD DUP1 DUP3 SSTORE DUP1 SWAP2 POP POP PUSH1 0x1 SWAP1 SUB SWAP1 PUSH1 0x0 MSTORE PUSH1 0x20 PUSH1 0x0 KECCAK256 SWAP1 PUSH1 0x2 MUL ADD PUSH1 0x0 SWAP1 SWAP2 SWAP1 SWAP2 SWAP1 SWAP2 POP PUSH1 0x0 DUP3 ADD MLOAD DUP2 PUSH1 0x0 ADD PUSH1 0x0 PUSH2 0x100 EXP DUP2 SLOAD DUP2 PUSH20 0xFFFFFFFFFFFFFFFFFFFFFFFFFFFFFFFFFFFFFFFF MUL NOT AND SWAP1 DUP4 PUSH20 0xFFFFFFFFFFFFFFFFFFFFFFFFFFFFFFFFFFFFFFFF AND MUL OR SWAP1 SSTORE POP PUSH1 0x20 DUP3 ADD MLOAD DUP2 PUSH1 0x1 ADD SSTORE POP POP PUSH1 0x1 DUP2 PUSH1 0xA ADD PUSH1 0x0 CALLER PUSH20 0xFFFFFFFFFFFFFFFFFFFFFFFFFFFFFFFFFFFFFFFF AND PUSH20 0xFFFFFFFFFFFFFFFFFFFFFFFFFFFFFFFFFFFFFFFF AND DUP2 MSTORE PUSH1 0x20 ADD SWAP1 DUP2 MSTORE PUSH1 0x20 ADD PUSH1 0x0 KECCAK256 PUSH1 0x0 PUSH2 0x100 EXP DUP2 SLOAD DUP2 PUSH1 0xFF MUL NOT AND SWAP1 DUP4 ISZERO ISZERO MUL OR SWAP1 SSTORE POP DUP4 DUP2 PUSH1 0xB ADD PUSH1 0x0 CALLER PUSH20 0xFFFFFFFFFFFFFFFFFFFFFFFFFFFFFFFFFFFFFFFF AND PUSH20 0xFFFFFFFFFFFFFFFFFFFFFFFFFFFFFFFFFFFFFFFF AND DUP2 MSTORE PUSH1 0x20 ADD SWAP1 DUP2 MSTORE PUSH1 0x20 ADD PUSH1 0x0 KECCAK256 DUP2 SWAP1 SSTORE POP DUP4 DUP2 PUSH1 0x7 ADD PUSH1 0x0 DUP3 DUP3 SLOAD PUSH2 0x73D SWAP2 SWAP1 PUSH2 0x1A62 JUMP JUMPDEST SWAP3 POP POP DUP2 SWAP1 SSTORE POP DUP1 PUSH1 0x5 ADD PUSH1 0x0 DUP2 SLOAD DUP1 SWAP3 SWAP2 SWAP1 PUSH2 0x759 SWAP1 PUSH2 0x1A96 JUMP JUMPDEST SWAP2 SWAP1 POP SSTORE POP PUSH32 0x338E0CD33C4E120AFCD73F43F082FD8940ED67AC35180D278D2EB4F3ED51D92E DUP6 CALLER DUP7 PUSH1 0x40 MLOAD PUSH2 0x791 SWAP4 SWAP3 SWAP2 SWAP1 PUSH2 0x1ADE JUMP JUMPDEST PUSH1 0x40 MLOAD DUP1 SWAP2 SUB SWAP1 LOG1 POP POP POP POP POP JUMP JUMPDEST PUSH1 0x2 PUSH1 0x20 MSTORE DUP1 PUSH1 0x0 MSTORE PUSH1 0x40 PUSH1 0x0 KECCAK256 PUSH1 0x0 SWAP2 POP SWAP1 POP DUP1 PUSH1 0x0 ADD SLOAD SWAP1 DUP1 PUSH1 0x1 ADD DUP1 SLOAD PUSH2 0x7C9 SWAP1 PUSH2 0x1881 JUMP JUMPDEST DUP1 PUSH1 0x1F ADD PUSH1 0x20 DUP1 SWAP2 DIV MUL PUSH1 0x20 ADD PUSH1 0x40 MLOAD SWAP1 DUP2 ADD PUSH1 0x40 MSTORE DUP1 SWAP3 SWAP2 SWAP1 DUP2 DUP2 MSTORE PUSH1 0x20 ADD DUP3 DUP1 SLOAD PUSH2 0x7F5 SWAP1 PUSH2 0x1881 JUMP JUMPDEST DUP1 ISZERO PUSH2 0x842 JUMPI DUP1 PUSH1 0x1F LT PUSH2 0x817 JUMPI PUSH2 0x100 DUP1 DUP4 SLOAD DIV MUL DUP4 MSTORE SWAP2 PUSH1 0x20 ADD SWAP2 PUSH2 0x842 JUMP JUMPDEST DUP3 ADD SWAP2 SWAP1 PUSH1 0x0 MSTORE PUSH1 0x20 PUSH1 0x0 KECCAK256 SWAP1 JUMPDEST DUP2 SLOAD DUP2 MSTORE SWAP1 PUSH1 0x1 ADD SWAP1 PUSH1 0x20 ADD DUP1 DUP4 GT PUSH2 0x825 JUMPI DUP3 SWAP1 SUB PUSH1 0x1F AND DUP3 ADD SWAP2 JUMPDEST POP POP POP POP POP SWAP1 DUP1 PUSH1 0x2 ADD PUSH1 0x0 SWAP1 SLOAD SWAP1 PUSH2 0x100 EXP SWAP1 DIV PUSH20 0xFFFFFFFFFFFFFFFFFFFFFFFFFFFFFFFFFFFFFFFF AND SWAP1 DUP1 PUSH1 0x3 ADD SLOAD SWAP1 DUP1 PUSH1 0x4 ADD SLOAD SWAP1 DUP1 PUSH1 0x5 ADD SLOAD SWAP1 DUP1 PUSH1 0x6 ADD SLOAD SWAP1 DUP1 PUSH1 0x7 ADD SLOAD SWAP1 DUP1 PUSH1 0x8 ADD PUSH1 0x0 SWAP1 SLOAD SWAP1 PUSH2 0x100 EXP SWAP1 DIV PUSH1 0xFF AND SWAP1 POP DUP10 JUMP JUMPDEST PUSH1 0x0 DUP1 SLOAD SWAP1 PUSH2 0x100 EXP SWAP1 DIV PUSH20 0xFFFFFFFFFFFFFFFFFFFFFFFFFFFFFFFFFFFFFFFF AND DUP2 JUMP JUMPDEST DUP1 CALLER PUSH20 0xFFFFFFFFFFFFFFFFFFFFFFFFFFFFFFFFFFFFFFFF AND PUSH1 0x2 PUSH1 0x0 DUP4 DUP2 MSTORE PUSH1 0x20 ADD SWAP1 DUP2 MSTORE PUSH1 0x20 ADD PUSH1 0x0 KECCAK256 PUSH1 0x2 ADD PUSH1 0x0 SWAP1 SLOAD SWAP1 PUSH2 0x100 EXP SWAP1 DIV PUSH20 0xFFFFFFFFFFFFFFFFFFFFFFFFFFFFFFFFFFFFFFFF AND PUSH20 0xFFFFFFFFFFFFFFFFFFFFFFFFFFFFFFFFFFFFFFFF AND EQ PUSH2 0x96C JUMPI PUSH1 0x40 MLOAD PUSH32 0x8C379A000000000000000000000000000000000000000000000000000000000 DUP2 MSTORE PUSH1 0x4 ADD PUSH2 0x963 SWAP1 PUSH2 0x1B87 JUMP JUMPDEST PUSH1 0x40 MLOAD DUP1 SWAP2 SUB SWAP1 REVERT JUMPDEST DUP2 PUSH1 0x0 PUSH20 0xFFFFFFFFFFFFFFFFFFFFFFFFFFFFFFFFFFFFFFFF AND PUSH1 0x2 PUSH1 0x0 DUP4 DUP2 MSTORE PUSH1 0x20 ADD SWAP1 DUP2 MSTORE PUSH1 0x20 ADD PUSH1 0x0 KECCAK256 PUSH1 0x2 ADD PUSH1 0x0 SWAP1 SLOAD SWAP1 PUSH2 0x100 EXP SWAP1 DIV PUSH20 0xFFFFFFFFFFFFFFFFFFFFFFFFFFFFFFFFFFFFFFFF AND PUSH20 0xFFFFFFFFFFFFFFFFFFFFFFFFFFFFFFFFFFFFFFFF AND SUB PUSH2 0xA12 JUMPI PUSH1 0x40 MLOAD PUSH32 0x8C379A000000000000000000000000000000000000000000000000000000000 DUP2 MSTORE PUSH1 0x4 ADD PUSH2 0xA09 SWAP1 PUSH2 0x18FE JUMP JUMPDEST PUSH1 0x40 MLOAD DUP1 SWAP2 SUB SWAP1 REVERT JUMPDEST DUP3 PUSH1 0x1 ISZERO ISZERO PUSH1 0x2 PUSH1 0x0 DUP4 DUP2 MSTORE PUSH1 0x20 ADD SWAP1 DUP2 MSTORE PUSH1 0x20 ADD PUSH1 0x0 KECCAK256 PUSH1 0x8 ADD PUSH1 0x0 SWAP1 SLOAD SWAP1 PUSH2 0x100 EXP SWAP1 DIV PUSH1 0xFF AND ISZERO ISZERO EQ PUSH2 0xA7D JUMPI PUSH1 0x40 MLOAD PUSH32 0x8C379A000000000000000000000000000000000000000000000000000000000 DUP2 MSTORE PUSH1 0x4 ADD PUSH2 0xA74 SWAP1 PUSH2 0x196A JUMP JUMPDEST PUSH1 0x40 MLOAD DUP1 SWAP2 SUB SWAP1 REVERT JUMPDEST PUSH1 0x0 PUSH1 0x2 PUSH1 0x0 DUP7 DUP2 MSTORE PUSH1 0x20 ADD SWAP1 DUP2 MSTORE PUSH1 0x20 ADD PUSH1 0x0 KECCAK256 SWAP1 POP PUSH1 0x0 DUP2 PUSH1 0x9 ADD DUP1 SLOAD SWAP1 POP GT PUSH2 0xADE JUMPI PUSH1 0x40 MLOAD PUSH32 0x8C379A000000000000000000000000000000000000000000000000000000000 DUP2 MSTORE PUSH1 0x4 ADD PUSH2 0xAD5 SWAP1 PUSH2 0x1BF3 JUMP JUMPDEST PUSH1 0x40 MLOAD DUP1 SWAP2 SUB SWAP1 REVERT JUMPDEST PUSH1 0x0 DUP2 PUSH1 0x7 ADD SLOAD GT PUSH2 0xB25 JUMPI PUSH1 0x40 MLOAD PUSH32 0x8C379A000000000000000000000000000000000000000000000000000000000 DUP2 MSTORE PUSH1 0x4 ADD PUSH2 0xB1C SWAP1 PUSH2 0x1C85 JUMP JUMPDEST PUSH1 0x40 MLOAD DUP1 SWAP2 SUB SWAP1 REVERT JUMPDEST PUSH1 0x0 DUP2 PUSH1 0x8 ADD PUSH1 0x0 PUSH2 0x100 EXP DUP2 SLOAD DUP2 PUSH1 0xFF MUL NOT AND SWAP1 DUP4 ISZERO ISZERO MUL OR SWAP1 SSTORE POP PUSH1 0x0 DUP1 JUMPDEST DUP3 PUSH1 0x9 ADD DUP1 SLOAD SWAP1 POP DUP2 LT ISZERO PUSH2 0xC68 JUMPI PUSH1 0x0 DUP4 PUSH1 0x9 ADD DUP3 DUP2 SLOAD DUP2 LT PUSH2 0xB6D JUMPI PUSH2 0xB6C PUSH2 0x1823 JUMP JUMPDEST JUMPDEST SWAP1 PUSH1 0x0 MSTORE PUSH1 0x20 PUSH1 0x0 KECCAK256 SWAP1 PUSH1 0x2 MUL ADD PUSH1 0x40 MLOAD DUP1 PUSH1 0x40 ADD PUSH1 0x40 MSTORE SWAP1 DUP2 PUSH1 0x0 DUP3 ADD PUSH1 0x0 SWAP1 SLOAD SWAP1 PUSH2 0x100 EXP SWAP1 DIV PUSH20 0xFFFFFFFFFFFFFFFFFFFFFFFFFFFFFFFFFFFFFFFF AND PUSH20 0xFFFFFFFFFFFFFFFFFFFFFFFFFFFFFFFFFFFFFFFF AND PUSH20 0xFFFFFFFFFFFFFFFFFFFFFFFFFFFFFFFFFFFFFFFF AND DUP2 MSTORE PUSH1 0x20 ADD PUSH1 0x1 DUP3 ADD SLOAD DUP2 MSTORE POP POP SWAP1 POP PUSH1 0x0 DUP5 PUSH1 0x6 ADD SLOAD DUP3 PUSH1 0x20 ADD MLOAD PUSH2 0xBFE SWAP2 SWAP1 PUSH2 0x1CA5 JUMP JUMPDEST SWAP1 POP DUP1 DUP5 PUSH2 0xC0C SWAP2 SWAP1 PUSH2 0x1A62 JUMP JUMPDEST SWAP4 POP DUP2 PUSH1 0x0 ADD MLOAD PUSH20 0xFFFFFFFFFFFFFFFFFFFFFFFFFFFFFFFFFFFFFFFF AND PUSH2 0x8FC DUP3 SWAP1 DUP2 ISZERO MUL SWAP1 PUSH1 0x40 MLOAD PUSH1 0x0 PUSH1 0x40 MLOAD DUP1 DUP4 SUB DUP2 DUP6 DUP9 DUP9 CALL SWAP4 POP POP POP POP ISZERO DUP1 ISZERO PUSH2 0xC58 JUMPI RETURNDATASIZE PUSH1 0x0 DUP1 RETURNDATACOPY RETURNDATASIZE PUSH1 0x0 REVERT JUMPDEST POP POP POP DUP1 DUP1 PUSH1 0x1 ADD SWAP2 POP POP PUSH2 0xB46 JUMP JUMPDEST POP PUSH1 0x0 DUP2 DUP4 PUSH1 0x3 ADD SLOAD PUSH2 0xC7B SWAP2 SWAP1 PUSH2 0x17C0 JUMP JUMPDEST SWAP1 POP DUP3 PUSH1 0x2 ADD PUSH1 0x0 SWAP1 SLOAD SWAP1 PUSH2 0x100 EXP SWAP1 DIV PUSH20 0xFFFFFFFFFFFFFFFFFFFFFFFFFFFFFFFFFFFFFFFF AND PUSH20 0xFFFFFFFFFFFFFFFFFFFFFFFFFFFFFFFFFFFFFFFF AND PUSH2 0x8FC DUP3 SWAP1 DUP2 ISZERO MUL SWAP1 PUSH1 0x40 MLOAD PUSH1 0x0 PUSH1 0x40 MLOAD DUP1 DUP4 SUB DUP2 DUP6 DUP9 DUP9 CALL SWAP4 POP POP POP POP ISZERO DUP1 ISZERO PUSH2 0xCE7 JUMPI RETURNDATASIZE PUSH1 0x0 DUP1 RETURNDATACOPY RETURNDATASIZE PUSH1 0x0 REVERT JUMPDEST POP PUSH32 0xA079FDBA1BC1AF068F704947986666FEB435D952A5DB81D4109E9E7D070EFBDB DUP8 DUP4 PUSH1 0x40 MLOAD PUSH2 0xD19 SWAP3 SWAP2 SWAP1 PUSH2 0x1CE7 JUMP JUMPDEST PUSH1 0x40 MLOAD DUP1 SWAP2 SUB SWAP1 LOG1 POP POP POP POP POP POP POP JUMP JUMPDEST PUSH1 0x1 SLOAD DUP2 JUMP JUMPDEST PUSH1 0x60 DUP2 PUSH1 0x0 PUSH20 0xFFFFFFFFFFFFFFFFFFFFFFFFFFFFFFFFFFFFFFFF AND PUSH1 0x2 PUSH1 0x0 DUP4 DUP2 MSTORE PUSH1 0x20 ADD SWAP1 DUP2 MSTORE PUSH1 0x20 ADD PUSH1 0x0 KECCAK256 PUSH1 0x2 ADD PUSH1 0x0 SWAP1 SLOAD SWAP1 PUSH2 0x100 EXP SWAP1 DIV PUSH20 0xFFFFFFFFFFFFFFFFFFFFFFFFFFFFFFFFFFFFFFFF AND PUSH20 0xFFFFFFFFFFFFFFFFFFFFFFFFFFFFFFFFFFFFFFFF AND SUB PUSH2 0xDD8 JUMPI PUSH1 0x40 MLOAD PUSH32 0x8C379A000000000000000000000000000000000000000000000000000000000 DUP2 MSTORE PUSH1 0x4 ADD PUSH2 0xDCF SWAP1 PUSH2 0x18FE JUMP JUMPDEST PUSH1 0x40 MLOAD DUP1 SWAP2 SUB SWAP1 REVERT JUMPDEST PUSH1 0x2 PUSH1 0x0 DUP5 DUP2 MSTORE PUSH1 0x20 ADD SWAP1 DUP2 MSTORE PUSH1 0x20 ADD PUSH1 0x0 KECCAK256 PUSH1 0x9 ADD DUP1 SLOAD DUP1 PUSH1 0x20 MUL PUSH1 0x20 ADD PUSH1 0x40 MLOAD SWAP1 DUP2 ADD PUSH1 0x40 MSTORE DUP1 SWAP3 SWAP2 SWAP1 DUP2 DUP2 MSTORE PUSH1 0x20 ADD PUSH1 0x0 SWAP1 JUMPDEST DUP3 DUP3 LT ISZERO PUSH2 0xEA0 JUMPI DUP4 DUP3 SWAP1 PUSH1 0x0 MSTORE PUSH1 0x20 PUSH1 0x0 KECCAK256 SWAP1 PUSH1 0x2 MUL ADD PUSH1 0x40 MLOAD DUP1 PUSH1 0x40 ADD PUSH1 0x40 MSTORE SWAP1 DUP2 PUSH1 0x0 DUP3 ADD PUSH1 0x0 SWAP1 SLOAD SWAP1 PUSH2 0x100 EXP SWAP1 DIV PUSH20 0xFFFFFFFFFFFFFFFFFFFFFFFFFFFFFFFFFFFFFFFF AND PUSH20 0xFFFFFFFFFFFFFFFFFFFFFFFFFFFFFFFFFFFFFFFF AND PUSH20 0xFFFFFFFFFFFFFFFFFFFFFFFFFFFFFFFFFFFFFFFF AND DUP2 MSTORE PUSH1 0x20 ADD PUSH1 0x1 DUP3 ADD SLOAD DUP2 MSTORE POP POP DUP2 MSTORE PUSH1 0x20 ADD SWAP1 PUSH1 0x1 ADD SWAP1 PUSH2 0xE0E JUMP JUMPDEST POP POP POP POP SWAP2 POP POP SWAP2 SWAP1 POP JUMP JUMPDEST PUSH1 0x0 CALLVALUE GT PUSH2 0xEEF JUMPI PUSH1 0x40 MLOAD PUSH32 0x8C379A000000000000000000000000000000000000000000000000000000000 DUP2 MSTORE PUSH1 0x4 ADD PUSH2 0xEE6 SWAP1 PUSH2 0x1D5C JUMP JUMPDEST PUSH1 0x40 MLOAD DUP1 SWAP2 SUB SWAP1 REVERT JUMPDEST PUSH1 0x0 DUP3 GT PUSH2 0xF32 JUMPI PUSH1 0x40 MLOAD PUSH32 0x8C379A000000000000000000000000000000000000000000000000000000000 DUP2 MSTORE PUSH1 0x4 ADD PUSH2 0xF29 SWAP1 PUSH2 0x1DEE JUMP JUMPDEST PUSH1 0x40 MLOAD DUP1 SWAP2 SUB SWAP1 REVERT JUMPDEST PUSH1 0x0 DUP2 GT PUSH2 0xF75 JUMPI PUSH1 0x40 MLOAD PUSH32 0x8C379A000000000000000000000000000000000000000000000000000000000 DUP2 MSTORE PUSH1 0x4 ADD PUSH2 0xF6C SWAP1 PUSH2 0x1E80 JUMP JUMPDEST PUSH1 0x40 MLOAD DUP1 SWAP2 SUB SWAP1 REVERT JUMPDEST PUSH1 0x0 PUSH1 0x64 PUSH1 0x8 CALLVALUE PUSH2 0xF86 SWAP2 SWAP1 PUSH2 0x1CA5 JUMP JUMPDEST PUSH2 0xF90 SWAP2 SWAP1 PUSH2 0x1ECF JUMP JUMPDEST SWAP1 POP PUSH1 0x0 DUP1 SLOAD SWAP1 PUSH2 0x100 EXP SWAP1 DIV PUSH20 0xFFFFFFFFFFFFFFFFFFFFFFFFFFFFFFFFFFFFFFFF AND PUSH20 0xFFFFFFFFFFFFFFFFFFFFFFFFFFFFFFFFFFFFFFFF AND PUSH2 0x8FC DUP3 SWAP1 DUP2 ISZERO MUL SWAP1 PUSH1 0x40 MLOAD PUSH1 0x0 PUSH1 0x40 MLOAD DUP1 DUP4 SUB DUP2 DUP6 DUP9 DUP9 CALL SWAP4 POP POP POP POP ISZERO DUP1 ISZERO PUSH2 0xFF8 JUMPI RETURNDATASIZE PUSH1 0x0 DUP1 RETURNDATACOPY RETURNDATASIZE PUSH1 0x0 REVERT JUMPDEST POP PUSH1 0x0 DUP2 CALLVALUE PUSH2 0x1007 SWAP2 SWAP1 PUSH2 0x17C0 JUMP JUMPDEST SWAP1 POP PUSH1 0x0 PUSH1 0x1 SLOAD SWAP1 POP PUSH1 0x0 PUSH1 0x2 PUSH1 0x0 DUP4 DUP2 MSTORE PUSH1 0x20 ADD SWAP1 DUP2 MSTORE PUSH1 0x20 ADD PUSH1 0x0 KECCAK256 SWAP1 POP DUP2 DUP2 PUSH1 0x0 ADD DUP2 SWAP1 SSTORE POP DUP8 DUP8 DUP3 PUSH1 0x1 ADD SWAP2 DUP3 PUSH2 0x1043 SWAP3 SWAP2 SWAP1 PUSH2 0x20B7 JUMP JUMPDEST POP CALLER DUP2 PUSH1 0x2 ADD PUSH1 0x0 PUSH2 0x100 EXP DUP2 SLOAD DUP2 PUSH20 0xFFFFFFFFFFFFFFFFFFFFFFFFFFFFFFFFFFFFFFFF MUL NOT AND SWAP1 DUP4 PUSH20 0xFFFFFFFFFFFFFFFFFFFFFFFFFFFFFFFFFFFFFFFF AND MUL OR SWAP1 SSTORE POP DUP3 DUP2 PUSH1 0x3 ADD DUP2 SWAP1 SSTORE POP DUP6 DUP2 PUSH1 0x4 ADD DUP2 SWAP1 SSTORE POP DUP5 DUP2 PUSH1 0x6 ADD DUP2 SWAP1 SSTORE POP PUSH1 0x1 DUP2 PUSH1 0x8 ADD PUSH1 0x0 PUSH2 0x100 EXP DUP2 SLOAD DUP2 PUSH1 0xFF MUL NOT AND SWAP1 DUP4 ISZERO ISZERO MUL OR SWAP1 SSTORE POP PUSH1 0x0 DUP2 PUSH1 0x7 ADD DUP2 SWAP1 SSTORE POP PUSH1 0x0 DUP2 PUSH1 0x5 ADD DUP2 SWAP1 SSTORE POP PUSH1 0x1 PUSH1 0x0 DUP2 SLOAD DUP1 SWAP3 SWAP2 SWAP1 PUSH2 0x10E6 SWAP1 PUSH2 0x1A96 JUMP JUMPDEST SWAP2 SWAP1 POP SSTORE POP PUSH32 0xF826B5BF3215582E86E92ED5A9B21A37350DF8294D7BA9347C787DF4912EFC98 DUP3 DUP10 DUP10 CALLER DUP8 DUP12 PUSH1 0x40 MLOAD PUSH2 0x1124 SWAP7 SWAP6 SWAP5 SWAP4 SWAP3 SWAP2 SWAP1 PUSH2 0x21C3 JUMP JUMPDEST PUSH1 0x40 MLOAD DUP1 SWAP2 SUB SWAP1 LOG1 POP POP POP POP POP POP POP POP JUMP JUMPDEST PUSH1 0x0 DUP2 MLOAD SWAP1 POP SWAP2 SWAP1 POP JUMP JUMPDEST PUSH1 0x0 DUP3 DUP3 MSTORE PUSH1 0x20 DUP3 ADD SWAP1 POP SWAP3 SWAP2 POP POP JUMP JUMPDEST PUSH1 0x0 DUP2 SWAP1 POP PUSH1 0x20 DUP3 ADD SWAP1 POP SWAP2 SWAP1 POP JUMP JUMPDEST PUSH1 0x0 DUP2 SWAP1 POP SWAP2 SWAP1 POP JUMP JUMPDEST PUSH2 0x1175 DUP2 PUSH2 0x1162 JUMP JUMPDEST DUP3 MSTORE POP POP JUMP JUMPDEST PUSH1 0x0 PUSH2 0x1187 DUP4 DUP4 PUSH2 0x116C JUMP JUMPDEST PUSH1 0x20 DUP4 ADD SWAP1 POP SWAP3 SWAP2 POP POP JUMP JUMPDEST PUSH1 0x0 PUSH1 0x20 DUP3 ADD SWAP1 POP SWAP2 SWAP1 POP JUMP JUMPDEST PUSH1 0x0 PUSH2 0x11AB DUP3 PUSH2 0x1136 JUMP JUMPDEST PUSH2 0x11B5 DUP2 DUP6 PUSH2 0x1141 JUMP JUMPDEST SWAP4 POP PUSH2 0x11C0 DUP4 PUSH2 0x1152 JUMP JUMPDEST DUP1 PUSH1 0x0 JUMPDEST DUP4 DUP2 LT ISZERO PUSH2 0x11F1 JUMPI DUP2 MLOAD PUSH2 0x11D8 DUP9 DUP3 PUSH2 0x117B JUMP JUMPDEST SWAP8 POP PUSH2 0x11E3 DUP4 PUSH2 0x1193 JUMP JUMPDEST SWAP3 POP POP PUSH1 0x1 DUP2 ADD SWAP1 POP PUSH2 0x11C4 JUMP JUMPDEST POP DUP6 SWAP4 POP POP POP POP SWAP3 SWAP2 POP POP JUMP JUMPDEST PUSH1 0x0 DUP2 MLOAD SWAP1 POP SWAP2 SWAP1 POP JUMP JUMPDEST PUSH1 0x0 DUP3 DUP3 MSTORE PUSH1 0x20 DUP3 ADD SWAP1 POP SWAP3 SWAP2 POP POP JUMP JUMPDEST PUSH1 0x0 DUP2 SWAP1 POP PUSH1 0x20 DUP3 ADD SWAP1 POP SWAP2 SWAP1 POP JUMP JUMPDEST PUSH1 0x0 DUP2 MLOAD SWAP1 POP SWAP2 SWAP1 POP JUMP JUMPDEST PUSH1 0x0 DUP3 DUP3 MSTORE PUSH1 0x20 DUP3 ADD SWAP1 POP SWAP3 SWAP2 POP POP JUMP JUMPDEST PUSH1 0x0 JUMPDEST DUP4 DUP2 LT ISZERO PUSH2 0x1264 JUMPI DUP1 DUP3 ADD MLOAD DUP2 DUP5 ADD MSTORE PUSH1 0x20 DUP2 ADD SWAP1 POP PUSH2 0x1249 JUMP JUMPDEST PUSH1 0x0 DUP5 DUP5 ADD MSTORE POP POP POP POP JUMP JUMPDEST PUSH1 0x0 PUSH1 0x1F NOT PUSH1 0x1F DUP4 ADD AND SWAP1 POP SWAP2 SWAP1 POP JUMP JUMPDEST PUSH1 0x0 PUSH2 0x128C DUP3 PUSH2 0x122A JUMP JUMPDEST PUSH2 0x1296 DUP2 DUP6 PUSH2 0x1235 JUMP JUMPDEST SWAP4 POP PUSH2 0x12A6 DUP2 DUP6 PUSH1 0x20 DUP7 ADD PUSH2 0x1246 JUMP JUMPDEST PUSH2 0x12AF DUP2 PUSH2 0x1270 JUMP JUMPDEST DUP5 ADD SWAP2 POP POP SWAP3 SWAP2 POP POP JUMP JUMPDEST PUSH1 0x0 PUSH2 0x12C6 DUP4 DUP4 PUSH2 0x1281 JUMP JUMPDEST SWAP1 POP SWAP3 SWAP2 POP POP JUMP JUMPDEST PUSH1 0x0 PUSH1 0x20 DUP3 ADD SWAP1 POP SWAP2 SWAP1 POP JUMP JUMPDEST PUSH1 0x0 PUSH2 0x12E6 DUP3 PUSH2 0x11FE JUMP JUMPDEST PUSH2 0x12F0 DUP2 DUP6 PUSH2 0x1209 JUMP JUMPDEST SWAP4 POP DUP4 PUSH1 0x20 DUP3 MUL DUP6 ADD PUSH2 0x1302 DUP6 PUSH2 0x121A JUMP JUMPDEST DUP1 PUSH1 0x0 JUMPDEST DUP6 DUP2 LT ISZERO PUSH2 0x133E JUMPI DUP5 DUP5 SUB DUP10 MSTORE DUP2 MLOAD PUSH2 0x131F DUP6 DUP3 PUSH2 0x12BA JUMP JUMPDEST SWAP5 POP PUSH2 0x132A DUP4 PUSH2 0x12CE JUMP JUMPDEST SWAP3 POP PUSH1 0x20 DUP11 ADD SWAP10 POP POP PUSH1 0x1 DUP2 ADD SWAP1 POP PUSH2 0x1306 JUMP JUMPDEST POP DUP3 SWAP8 POP DUP8 SWAP6 POP POP POP POP POP POP SWAP3 SWAP2 POP POP JUMP JUMPDEST PUSH1 0x0 PUSH1 0x40 DUP3 ADD SWAP1 POP DUP2 DUP2 SUB PUSH1 0x0 DUP4 ADD MSTORE PUSH2 0x136A DUP2 DUP6 PUSH2 0x11A0 JUMP JUMPDEST SWAP1 POP DUP2 DUP2 SUB PUSH1 0x20 DUP4 ADD MSTORE PUSH2 0x137E DUP2 DUP5 PUSH2 0x12DB JUMP JUMPDEST SWAP1 POP SWAP4 SWAP3 POP POP POP JUMP JUMPDEST PUSH1 0x0 DUP1 REVERT JUMPDEST PUSH1 0x0 DUP1 REVERT JUMPDEST PUSH2 0x139A DUP2 PUSH2 0x1162 JUMP JUMPDEST DUP2 EQ PUSH2 0x13A5 JUMPI PUSH1 0x0 DUP1 REVERT JUMPDEST POP JUMP JUMPDEST PUSH1 0x0 DUP2 CALLDATALOAD SWAP1 POP PUSH2 0x13B7 DUP2 PUSH2 0x1391 JUMP JUMPDEST SWAP3 SWAP2 POP POP JUMP JUMPDEST PUSH1 0x0 DUP1 PUSH1 0x40 DUP4 DUP6 SUB SLT ISZERO PUSH2 0x13D4 JUMPI PUSH2 0x13D3 PUSH2 0x1387 JUMP JUMPDEST JUMPDEST PUSH1 0x0 PUSH2 0x13E2 DUP6 DUP3 DUP7 ADD PUSH2 0x13A8 JUMP JUMPDEST SWAP3 POP POP PUSH1 0x20 PUSH2 0x13F3 DUP6 DUP3 DUP7 ADD PUSH2 0x13A8 JUMP JUMPDEST SWAP2 POP POP SWAP3 POP SWAP3 SWAP1 POP JUMP JUMPDEST PUSH1 0x0 PUSH1 0x20 DUP3 DUP5 SUB SLT ISZERO PUSH2 0x1413 JUMPI PUSH2 0x1412 PUSH2 0x1387 JUMP JUMPDEST JUMPDEST PUSH1 0x0 PUSH2 0x1421 DUP5 DUP3 DUP6 ADD PUSH2 0x13A8 JUMP JUMPDEST SWAP2 POP POP SWAP3 SWAP2 POP POP JUMP JUMPDEST PUSH2 0x1433 DUP2 PUSH2 0x1162 JUMP JUMPDEST DUP3 MSTORE POP POP JUMP JUMPDEST PUSH1 0x0 DUP3 DUP3 MSTORE PUSH1 0x20 DUP3 ADD SWAP1 POP SWAP3 SWAP2 POP POP JUMP JUMPDEST PUSH1 0x0 PUSH2 0x1455 DUP3 PUSH2 0x122A JUMP JUMPDEST PUSH2 0x145F DUP2 DUP6 PUSH2 0x1439 JUMP JUMPDEST SWAP4 POP PUSH2 0x146F DUP2 DUP6 PUSH1 0x20 DUP7 ADD PUSH2 0x1246 JUMP JUMPDEST PUSH2 0x1478 DUP2 PUSH2 0x1270 JUMP JUMPDEST DUP5 ADD SWAP2 POP POP SWAP3 SWAP2 POP POP JUMP JUMPDEST PUSH1 0x0 PUSH20 0xFFFFFFFFFFFFFFFFFFFFFFFFFFFFFFFFFFFFFFFF DUP3 AND SWAP1 POP SWAP2 SWAP1 POP JUMP JUMPDEST PUSH1 0x0 PUSH2 0x14AE DUP3 PUSH2 0x1483 JUMP JUMPDEST SWAP1 POP SWAP2 SWAP1 POP JUMP JUMPDEST PUSH2 0x14BE DUP2 PUSH2 0x14A3 JUMP JUMPDEST DUP3 MSTORE POP POP JUMP JUMPDEST PUSH1 0x0 DUP2 ISZERO ISZERO SWAP1 POP SWAP2 SWAP1 POP JUMP JUMPDEST PUSH2 0x14D9 DUP2 PUSH2 0x14C4 JUMP JUMPDEST DUP3 MSTORE POP POP JUMP JUMPDEST PUSH1 0x0 PUSH2 0x120 DUP3 ADD SWAP1 POP PUSH2 0x14F5 PUSH1 0x0 DUP4 ADD DUP13 PUSH2 0x142A JUMP JUMPDEST DUP2 DUP2 SUB PUSH1 0x20 DUP4 ADD MSTORE PUSH2 0x1507 DUP2 DUP12 PUSH2 0x144A JUMP JUMPDEST SWAP1 POP PUSH2 0x1516 PUSH1 0x40 DUP4 ADD DUP11 PUSH2 0x14B5 JUMP JUMPDEST PUSH2 0x1523 PUSH1 0x60 DUP4 ADD DUP10 PUSH2 0x142A JUMP JUMPDEST PUSH2 0x1530 PUSH1 0x80 DUP4 ADD DUP9 PUSH2 0x142A JUMP JUMPDEST PUSH2 0x153D PUSH1 0xA0 DUP4 ADD DUP8 PUSH2 0x142A JUMP JUMPDEST PUSH2 0x154A PUSH1 0xC0 DUP4 ADD DUP7 PUSH2 0x142A JUMP JUMPDEST PUSH2 0x1557 PUSH1 0xE0 DUP4 ADD DUP6 PUSH2 0x142A JUMP JUMPDEST PUSH2 0x1565 PUSH2 0x100 DUP4 ADD DUP5 PUSH2 0x14D0 JUMP JUMPDEST SWAP11 SWAP10 POP POP POP POP POP POP POP POP POP POP JUMP JUMPDEST PUSH1 0x0 PUSH1 0x20 DUP3 ADD SWAP1 POP PUSH2 0x1588 PUSH1 0x0 DUP4 ADD DUP5 PUSH2 0x14B5 JUMP JUMPDEST SWAP3 SWAP2 POP POP JUMP JUMPDEST PUSH1 0x0 PUSH1 0x20 DUP3 ADD SWAP1 POP PUSH2 0x15A3 PUSH1 0x0 DUP4 ADD DUP5 PUSH2 0x142A JUMP JUMPDEST SWAP3 SWAP2 POP POP JUMP JUMPDEST PUSH1 0x0 DUP2 MLOAD SWAP1 POP SWAP2 SWAP1 POP JUMP JUMPDEST PUSH1 0x0 DUP3 DUP3 MSTORE PUSH1 0x20 DUP3 ADD SWAP1 POP SWAP3 SWAP2 POP POP JUMP JUMPDEST PUSH1 0x0 DUP2 SWAP1 POP PUSH1 0x20 DUP3 ADD SWAP1 POP SWAP2 SWAP1 POP JUMP JUMPDEST PUSH2 0x15DE DUP2 PUSH2 0x14A3 JUMP JUMPDEST DUP3 MSTORE POP POP JUMP JUMPDEST PUSH1 0x40 DUP3 ADD PUSH1 0x0 DUP3 ADD MLOAD PUSH2 0x15FA PUSH1 0x0 DUP6 ADD DUP3 PUSH2 0x15D5 JUMP JUMPDEST POP PUSH1 0x20 DUP3 ADD MLOAD PUSH2 0x160D PUSH1 0x20 DUP6 ADD DUP3 PUSH2 0x116C JUMP JUMPDEST POP POP POP POP JUMP JUMPDEST PUSH1 0x0 PUSH2 0x161F DUP4 DUP4 PUSH2 0x15E4 JUMP JUMPDEST PUSH1 0x40 DUP4 ADD SWAP1 POP SWAP3 SWAP2 POP POP JUMP JUMPDEST PUSH1 0x0 PUSH1 0x20 DUP3 ADD SWAP1 POP SWAP2 SWAP1 POP JUMP JUMPDEST PUSH1 0x0 PUSH2 0x1643 DUP3 PUSH2 0x15A9 JUMP JUMPDEST PUSH2 0x164D DUP2 DUP6 PUSH2 0x15B4 JUMP JUMPDEST SWAP4 POP PUSH2 0x1658 DUP4 PUSH2 0x15C5 JUMP JUMPDEST DUP1 PUSH1 0x0 JUMPDEST DUP4 DUP2 LT ISZERO PUSH2 0x1689 JUMPI DUP2 MLOAD PUSH2 0x1670 DUP9 DUP3 PUSH2 0x1613 JUMP JUMPDEST SWAP8 POP PUSH2 0x167B DUP4 PUSH2 0x162B JUMP JUMPDEST SWAP3 POP POP PUSH1 0x1 DUP2 ADD SWAP1 POP PUSH2 0x165C JUMP JUMPDEST POP DUP6 SWAP4 POP POP POP POP SWAP3 SWAP2 POP POP JUMP JUMPDEST PUSH1 0x0 PUSH1 0x20 DUP3 ADD SWAP1 POP DUP2 DUP2 SUB PUSH1 0x0 DUP4 ADD MSTORE PUSH2 0x16B0 DUP2 DUP5 PUSH2 0x1638 JUMP JUMPDEST SWAP1 POP SWAP3 SWAP2 POP POP JUMP JUMPDEST PUSH1 0x0 DUP1 REVERT JUMPDEST PUSH1 0x0 DUP1 REVERT JUMPDEST PUSH1 0x0 DUP1 REVERT JUMPDEST PUSH1 0x0 DUP1 DUP4 PUSH1 0x1F DUP5 ADD SLT PUSH2 0x16DD JUMPI PUSH2 0x16DC PUSH2 0x16B8 JUMP JUMPDEST JUMPDEST DUP3 CALLDATALOAD SWAP1 POP PUSH8 0xFFFFFFFFFFFFFFFF DUP2 GT ISZERO PUSH2 0x16FA JUMPI PUSH2 0x16F9 PUSH2 0x16BD JUMP JUMPDEST JUMPDEST PUSH1 0x20 DUP4 ADD SWAP2 POP DUP4 PUSH1 0x1 DUP3 MUL DUP4 ADD GT ISZERO PUSH2 0x1716 JUMPI PUSH2 0x1715 PUSH2 0x16C2 JUMP JUMPDEST JUMPDEST SWAP3 POP SWAP3 SWAP1 POP JUMP JUMPDEST PUSH1 0x0 DUP1 PUSH1 0x0 DUP1 PUSH1 0x60 DUP6 DUP8 SUB SLT ISZERO PUSH2 0x1737 JUMPI PUSH2 0x1736 PUSH2 0x1387 JUMP JUMPDEST JUMPDEST PUSH1 0x0 DUP6 ADD CALLDATALOAD PUSH8 0xFFFFFFFFFFFFFFFF DUP2 GT ISZERO PUSH2 0x1755 JUMPI PUSH2 0x1754 PUSH2 0x138C JUMP JUMPDEST JUMPDEST PUSH2 0x1761 DUP8 DUP3 DUP9 ADD PUSH2 0x16C7 JUMP JUMPDEST SWAP5 POP SWAP5 POP POP PUSH1 0x20 PUSH2 0x1774 DUP8 DUP3 DUP9 ADD PUSH2 0x13A8 JUMP JUMPDEST SWAP3 POP POP PUSH1 0x40 PUSH2 0x1785 DUP8 DUP3 DUP9 ADD PUSH2 0x13A8 JUMP JUMPDEST SWAP2 POP POP SWAP3 SWAP6 SWAP2 SWAP5 POP SWAP3 POP JUMP JUMPDEST PUSH32 0x4E487B7100000000000000000000000000000000000000000000000000000000 PUSH1 0x0 MSTORE PUSH1 0x11 PUSH1 0x4 MSTORE PUSH1 0x24 PUSH1 0x0 REVERT JUMPDEST PUSH1 0x0 PUSH2 0x17CB DUP3 PUSH2 0x1162 JUMP JUMPDEST SWAP2 POP PUSH2 0x17D6 DUP4 PUSH2 0x1162 JUMP JUMPDEST SWAP3 POP DUP3 DUP3 SUB SWAP1 POP DUP2 DUP2 GT ISZERO PUSH2 0x17EE JUMPI PUSH2 0x17ED PUSH2 0x1791 JUMP JUMPDEST JUMPDEST SWAP3 SWAP2 POP POP JUMP JUMPDEST PUSH32 0x4E487B7100000000000000000000000000000000000000000000000000000000 PUSH1 0x0 MSTORE PUSH1 0x41 PUSH1 0x4 MSTORE PUSH1 0x24 PUSH1 0x0 REVERT JUMPDEST PUSH32 0x4E487B7100000000000000000000000000000000000000000000000000000000 PUSH1 0x0 MSTORE PUSH1 0x32 PUSH1 0x4 MSTORE PUSH1 0x24 PUSH1 0x0 REVERT JUMPDEST PUSH32 0x4E487B7100000000000000000000000000000000000000000000000000000000 PUSH1 0x0 MSTORE PUSH1 0x22 PUSH1 0x4 MSTORE PUSH1 0x24 PUSH1 0x0 REVERT JUMPDEST PUSH1 0x0 PUSH1 0x2 DUP3 DIV SWAP1 POP PUSH1 0x1 DUP3 AND DUP1 PUSH2 0x1899 JUMPI PUSH1 0x7F DUP3 AND SWAP2 POP JUMPDEST PUSH1 0x20 DUP3 LT DUP2 SUB PUSH2 0x18AC JUMPI PUSH2 0x18AB PUSH2 0x1852 JUMP JUMPDEST JUMPDEST POP SWAP2 SWAP1 POP JUMP JUMPDEST PUSH32 0x5175697A20646F6573206E6F7420657869737400000000000000000000000000 PUSH1 0x0 DUP3 ADD MSTORE POP JUMP JUMPDEST PUSH1 0x0 PUSH2 0x18E8 PUSH1 0x13 DUP4 PUSH2 0x1439 JUMP JUMPDEST SWAP2 POP PUSH2 0x18F3 DUP3 PUSH2 0x18B2 JUMP JUMPDEST PUSH1 0x20 DUP3 ADD SWAP1 POP SWAP2 SWAP1 POP JUMP JUMPDEST PUSH1 0x0 PUSH1 0x20 DUP3 ADD SWAP1 POP DUP2 DUP2 SUB PUSH1 0x0 DUP4 ADD MSTORE PUSH2 0x1917 DUP2 PUSH2 0x18DB JUMP JUMPDEST SWAP1 POP SWAP2 SWAP1 POP JUMP JUMPDEST PUSH32 0x5175697A206973206E6F74206163746976650000000000000000000000000000 PUSH1 0x0 DUP3 ADD MSTORE POP JUMP JUMPDEST PUSH1 0x0 PUSH2 0x1954 PUSH1 0x12 DUP4 PUSH2 0x1439 JUMP JUMPDEST SWAP2 POP PUSH2 0x195F DUP3 PUSH2 0x191E JUMP JUMPDEST PUSH1 0x20 DUP3 ADD SWAP1 POP SWAP2 SWAP1 POP JUMP JUMPDEST PUSH1 0x0 PUSH1 0x20 DUP3 ADD SWAP1 POP DUP2 DUP2 SUB PUSH1 0x0 DUP4 ADD MSTORE PUSH2 0x1983 DUP2 PUSH2 0x1947 JUMP JUMPDEST SWAP1 POP SWAP2 SWAP1 POP JUMP JUMPDEST PUSH32 0x416C726561647920706172746963697061746564000000000000000000000000 PUSH1 0x0 DUP3 ADD MSTORE POP JUMP JUMPDEST PUSH1 0x0 PUSH2 0x19C0 PUSH1 0x14 DUP4 PUSH2 0x1439 JUMP JUMPDEST SWAP2 POP PUSH2 0x19CB DUP3 PUSH2 0x198A JUMP JUMPDEST PUSH1 0x20 DUP3 ADD SWAP1 POP SWAP2 SWAP1 POP JUMP JUMPDEST PUSH1 0x0 PUSH1 0x20 DUP3 ADD SWAP1 POP DUP2 DUP2 SUB PUSH1 0x0 DUP4 ADD MSTORE PUSH2 0x19EF DUP2 PUSH2 0x19B3 JUMP JUMPDEST SWAP1 POP SWAP2 SWAP1 POP JUMP JUMPDEST PUSH32 0x53636F7265206D7573742062652067726561746572207468616E203000000000 PUSH1 0x0 DUP3 ADD MSTORE POP JUMP JUMPDEST PUSH1 0x0 PUSH2 0x1A2C PUSH1 0x1C DUP4 PUSH2 0x1439 JUMP JUMPDEST SWAP2 POP PUSH2 0x1A37 DUP3 PUSH2 0x19F6 JUMP JUMPDEST PUSH1 0x20 DUP3 ADD SWAP1 POP SWAP2 SWAP1 POP JUMP JUMPDEST PUSH1 0x0 PUSH1 0x20 DUP3 ADD SWAP1 POP DUP2 DUP2 SUB PUSH1 0x0 DUP4 ADD MSTORE PUSH2 0x1A5B DUP2 PUSH2 0x1A1F JUMP JUMPDEST SWAP1 POP SWAP2 SWAP1 POP JUMP JUMPDEST PUSH1 0x0 PUSH2 0x1A6D DUP3 PUSH2 0x1162 JUMP JUMPDEST SWAP2 POP PUSH2 0x1A78 DUP4 PUSH2 0x1162 JUMP JUMPDEST SWAP3 POP DUP3 DUP3 ADD SWAP1 POP DUP1 DUP3 GT ISZERO PUSH2 0x1A90 JUMPI PUSH2 0x1A8F PUSH2 0x1791 JUMP JUMPDEST JUMPDEST SWAP3 SWAP2 POP POP JUMP JUMPDEST PUSH1 0x0 PUSH2 0x1AA1 DUP3 PUSH2 0x1162 JUMP JUMPDEST SWAP2 POP PUSH32 0xFFFFFFFFFFFFFFFFFFFFFFFFFFFFFFFFFFFFFFFFFFFFFFFFFFFFFFFFFFFFFFFF DUP3 SUB PUSH2 0x1AD3 JUMPI PUSH2 0x1AD2 PUSH2 0x1791 JUMP JUMPDEST JUMPDEST PUSH1 0x1 DUP3 ADD SWAP1 POP SWAP2 SWAP1 POP JUMP JUMPDEST PUSH1 0x0 PUSH1 0x60 DUP3 ADD SWAP1 POP PUSH2 0x1AF3 PUSH1 0x0 DUP4 ADD DUP7 PUSH2 0x142A JUMP JUMPDEST PUSH2 0x1B00 PUSH1 0x20 DUP4 ADD DUP6 PUSH2 0x14B5 JUMP JUMPDEST PUSH2 0x1B0D PUSH1 0x40 DUP4 ADD DUP5 PUSH2 0x142A JUMP JUMPDEST SWAP5 SWAP4 POP POP POP POP JUMP JUMPDEST PUSH32 0x4F6E6C7920746865207175697A2063726561746F722063616E20706572666F72 PUSH1 0x0 DUP3 ADD MSTORE PUSH32 0x6D207468697320616374696F6E00000000000000000000000000000000000000 PUSH1 0x20 DUP3 ADD MSTORE POP JUMP JUMPDEST PUSH1 0x0 PUSH2 0x1B71 PUSH1 0x2D DUP4 PUSH2 0x1439 JUMP JUMPDEST SWAP2 POP PUSH2 0x1B7C DUP3 PUSH2 0x1B15 JUMP JUMPDEST PUSH1 0x40 DUP3 ADD SWAP1 POP SWAP2 SWAP1 POP JUMP JUMPDEST PUSH1 0x0 PUSH1 0x20 DUP3 ADD SWAP1 POP DUP2 DUP2 SUB PUSH1 0x0 DUP4 ADD MSTORE PUSH2 0x1BA0 DUP2 PUSH2 0x1B64 JUMP JUMPDEST SWAP1 POP SWAP2 SWAP1 POP JUMP JUMPDEST PUSH32 0x4E6F207061727469636970616E747320746F2064697374726962757465000000 PUSH1 0x0 DUP3 ADD MSTORE POP JUMP JUMPDEST PUSH1 0x0 PUSH2 0x1BDD PUSH1 0x1D DUP4 PUSH2 0x1439 JUMP JUMPDEST SWAP2 POP PUSH2 0x1BE8 DUP3 PUSH2 0x1BA7 JUMP JUMPDEST PUSH1 0x20 DUP3 ADD SWAP1 POP SWAP2 SWAP1 POP JUMP JUMPDEST PUSH1 0x0 PUSH1 0x20 DUP3 ADD SWAP1 POP DUP2 DUP2 SUB PUSH1 0x0 DUP4 ADD MSTORE PUSH2 0x1C0C DUP2 PUSH2 0x1BD0 JUMP JUMPDEST SWAP1 POP SWAP2 SWAP1 POP JUMP JUMPDEST PUSH32 0x546F74616C2073636F7265206D7573742062652067726561746572207468616E PUSH1 0x0 DUP3 ADD MSTORE PUSH32 0x2030000000000000000000000000000000000000000000000000000000000000 PUSH1 0x20 DUP3 ADD MSTORE POP JUMP JUMPDEST PUSH1 0x0 PUSH2 0x1C6F PUSH1 0x22 DUP4 PUSH2 0x1439 JUMP JUMPDEST SWAP2 POP PUSH2 0x1C7A DUP3 PUSH2 0x1C13 JUMP JUMPDEST PUSH1 0x40 DUP3 ADD SWAP1 POP SWAP2 SWAP1 POP JUMP JUMPDEST PUSH1 0x0 PUSH1 0x20 DUP3 ADD SWAP1 POP DUP2 DUP2 SUB PUSH1 0x0 DUP4 ADD MSTORE PUSH2 0x1C9E DUP2 PUSH2 0x1C62 JUMP JUMPDEST SWAP1 POP SWAP2 SWAP1 POP JUMP JUMPDEST PUSH1 0x0 PUSH2 0x1CB0 DUP3 PUSH2 0x1162 JUMP JUMPDEST SWAP2 POP PUSH2 0x1CBB DUP4 PUSH2 0x1162 JUMP JUMPDEST SWAP3 POP DUP3 DUP3 MUL PUSH2 0x1CC9 DUP2 PUSH2 0x1162 JUMP JUMPDEST SWAP2 POP DUP3 DUP3 DIV DUP5 EQ DUP4 ISZERO OR PUSH2 0x1CE0 JUMPI PUSH2 0x1CDF PUSH2 0x1791 JUMP JUMPDEST JUMPDEST POP SWAP3 SWAP2 POP POP JUMP JUMPDEST PUSH1 0x0 PUSH1 0x40 DUP3 ADD SWAP1 POP PUSH2 0x1CFC PUSH1 0x0 DUP4 ADD DUP6 PUSH2 0x142A JUMP JUMPDEST PUSH2 0x1D09 PUSH1 0x20 DUP4 ADD DUP5 PUSH2 0x142A JUMP JUMPDEST SWAP4 SWAP3 POP POP POP JUMP JUMPDEST PUSH32 0x427564676574206D7573742062652067726561746572207468616E2030000000 PUSH1 0x0 DUP3 ADD MSTORE POP JUMP JUMPDEST PUSH1 0x0 PUSH2 0x1D46 PUSH1 0x1D DUP4 PUSH2 0x1439 JUMP JUMPDEST SWAP2 POP PUSH2 0x1D51 DUP3 PUSH2 0x1D10 JUMP JUMPDEST PUSH1 0x20 DUP3 ADD SWAP1 POP SWAP2 SWAP1 POP JUMP JUMPDEST PUSH1 0x0 PUSH1 0x20 DUP3 ADD SWAP1 POP DUP2 DUP2 SUB PUSH1 0x0 DUP4 ADD MSTORE PUSH2 0x1D75 DUP2 PUSH2 0x1D39 JUMP JUMPDEST SWAP1 POP SWAP2 SWAP1 POP JUMP JUMPDEST PUSH32 0x5468657265206D757374206265206174206C65617374206F6E65207175657374 PUSH1 0x0 DUP3 ADD MSTORE PUSH32 0x696F6E0000000000000000000000000000000000000000000000000000000000 PUSH1 0x20 DUP3 ADD MSTORE POP JUMP JUMPDEST PUSH1 0x0 PUSH2 0x1DD8 PUSH1 0x23 DUP4 PUSH2 0x1439 JUMP JUMPDEST SWAP2 POP PUSH2 0x1DE3 DUP3 PUSH2 0x1D7C JUMP JUMPDEST PUSH1 0x40 DUP3 ADD SWAP1 POP SWAP2 SWAP1 POP JUMP JUMPDEST PUSH1 0x0 PUSH1 0x20 DUP3 ADD SWAP1 POP DUP2 DUP2 SUB PUSH1 0x0 DUP4 ADD MSTORE PUSH2 0x1E07 DUP2 PUSH2 0x1DCB JUMP JUMPDEST SWAP1 POP SWAP2 SWAP1 POP JUMP JUMPDEST PUSH32 0x5265776172642070657220706F696E74206D7573742062652067726561746572 PUSH1 0x0 DUP3 ADD MSTORE PUSH32 0x207468616E203000000000000000000000000000000000000000000000000000 PUSH1 0x20 DUP3 ADD MSTORE POP JUMP JUMPDEST PUSH1 0x0 PUSH2 0x1E6A PUSH1 0x27 DUP4 PUSH2 0x1439 JUMP JUMPDEST SWAP2 POP PUSH2 0x1E75 DUP3 PUSH2 0x1E0E JUMP JUMPDEST PUSH1 0x40 DUP3 ADD SWAP1 POP SWAP2 SWAP1 POP JUMP JUMPDEST PUSH1 0x0 PUSH1 0x20 DUP3 ADD SWAP1 POP DUP2 DUP2 SUB PUSH1 0x0 DUP4 ADD MSTORE PUSH2 0x1E99 DUP2 PUSH2 0x1E5D JUMP JUMPDEST SWAP1 POP SWAP2 SWAP1 POP JUMP JUMPDEST PUSH32 0x4E487B7100000000000000000000000000000000000000000000000000000000 PUSH1 0x0 MSTORE PUSH1 0x12 PUSH1 0x4 MSTORE PUSH1 0x24 PUSH1 0x0 REVERT JUMPDEST PUSH1 0x0 PUSH2 0x1EDA DUP3 PUSH2 0x1162 JUMP JUMPDEST SWAP2 POP PUSH2 0x1EE5 DUP4 PUSH2 0x1162 JUMP JUMPDEST SWAP3 POP DUP3 PUSH2 0x1EF5 JUMPI PUSH2 0x1EF4 PUSH2 0x1EA0 JUMP JUMPDEST JUMPDEST DUP3 DUP3 DIV SWAP1 POP SWAP3 SWAP2 POP POP JUMP JUMPDEST PUSH1 0x0 DUP3 SWAP1 POP SWAP3 SWAP2 POP POP JUMP JUMPDEST PUSH1 0x0 DUP2 SWAP1 POP DUP2 PUSH1 0x0 MSTORE PUSH1 0x20 PUSH1 0x0 KECCAK256 SWAP1 POP SWAP2 SWAP1 POP JUMP JUMPDEST PUSH1 0x0 PUSH1 0x20 PUSH1 0x1F DUP4 ADD DIV SWAP1 POP SWAP2 SWAP1 POP JUMP JUMPDEST PUSH1 0x0 DUP3 DUP3 SHL SWAP1 POP SWAP3 SWAP2 POP POP JUMP JUMPDEST PUSH1 0x0 PUSH1 0x8 DUP4 MUL PUSH2 0x1F6D PUSH32 0xFFFFFFFFFFFFFFFFFFFFFFFFFFFFFFFFFFFFFFFFFFFFFFFFFFFFFFFFFFFFFFFF DUP3 PUSH2 0x1F30 JUMP JUMPDEST PUSH2 0x1F77 DUP7 DUP4 PUSH2 0x1F30 JUMP JUMPDEST SWAP6 POP DUP1 NOT DUP5 AND SWAP4 POP DUP1 DUP7 AND DUP5 OR SWAP3 POP POP POP SWAP4 SWAP3 POP POP POP JUMP JUMPDEST PUSH1 0x0 DUP2 SWAP1 POP SWAP2 SWAP1 POP JUMP JUMPDEST PUSH1 0x0 PUSH2 0x1FB4 PUSH2 0x1FAF PUSH2 0x1FAA DUP5 PUSH2 0x1162 JUMP JUMPDEST PUSH2 0x1F8F JUMP JUMPDEST PUSH2 0x1162 JUMP JUMPDEST SWAP1 POP SWAP2 SWAP1 POP JUMP JUMPDEST PUSH1 0x0 DUP2 SWAP1 POP SWAP2 SWAP1 POP JUMP JUMPDEST PUSH2 0x1FCE DUP4 PUSH2 0x1F99 JUMP JUMPDEST PUSH2 0x1FE2 PUSH2 0x1FDA DUP3 PUSH2 0x1FBB JUMP JUMPDEST DUP5 DUP5 SLOAD PUSH2 0x1F3D JUMP JUMPDEST DUP3 SSTORE POP POP POP POP JUMP JUMPDEST PUSH1 0x0 SWAP1 JUMP JUMPDEST PUSH2 0x1FF7 PUSH2 0x1FEA JUMP JUMPDEST PUSH2 0x2002 DUP2 DUP5 DUP5 PUSH2 0x1FC5 JUMP JUMPDEST POP POP POP JUMP JUMPDEST JUMPDEST DUP2 DUP2 LT ISZERO PUSH2 0x2026 JUMPI PUSH2 0x201B PUSH1 0x0 DUP3 PUSH2 0x1FEF JUMP JUMPDEST PUSH1 0x1 DUP2 ADD SWAP1 POP PUSH2 0x2008 JUMP JUMPDEST POP POP JUMP JUMPDEST PUSH1 0x1F DUP3 GT ISZERO PUSH2 0x206B JUMPI PUSH2 0x203C DUP2 PUSH2 0x1F0B JUMP JUMPDEST PUSH2 0x2045 DUP5 PUSH2 0x1F20 JUMP JUMPDEST DUP2 ADD PUSH1 0x20 DUP6 LT ISZERO PUSH2 0x2054 JUMPI DUP2 SWAP1 POP JUMPDEST PUSH2 0x2068 PUSH2 0x2060 DUP6 PUSH2 0x1F20 JUMP JUMPDEST DUP4 ADD DUP3 PUSH2 0x2007 JUMP JUMPDEST POP POP JUMPDEST POP POP POP JUMP JUMPDEST PUSH1 0x0 DUP3 DUP3 SHR SWAP1 POP SWAP3 SWAP2 POP POP JUMP JUMPDEST PUSH1 0x0 PUSH2 0x208E PUSH1 0x0 NOT DUP5 PUSH1 0x8 MUL PUSH2 0x2070 JUMP JUMPDEST NOT DUP1 DUP4 AND SWAP2 POP POP SWAP3 SWAP2 POP POP JUMP JUMPDEST PUSH1 0x0 PUSH2 0x20A7 DUP4 DUP4 PUSH2 0x207D JUMP JUMPDEST SWAP2 POP DUP3 PUSH1 0x2 MUL DUP3 OR SWAP1 POP SWAP3 SWAP2 POP POP JUMP JUMPDEST PUSH2 0x20C1 DUP4 DUP4 PUSH2 0x1F00 JUMP JUMPDEST PUSH8 0xFFFFFFFFFFFFFFFF DUP2 GT ISZERO PUSH2 0x20DA JUMPI PUSH2 0x20D9 PUSH2 0x17F4 JUMP JUMPDEST JUMPDEST PUSH2 0x20E4 DUP3 SLOAD PUSH2 0x1881 JUMP JUMPDEST PUSH2 0x20EF DUP3 DUP3 DUP6 PUSH2 0x202A JUMP JUMPDEST PUSH1 0x0 PUSH1 0x1F DUP4 GT PUSH1 0x1 DUP2 EQ PUSH2 0x211E JUMPI PUSH1 0x0 DUP5 ISZERO PUSH2 0x210C JUMPI DUP3 DUP8 ADD CALLDATALOAD SWAP1 POP JUMPDEST PUSH2 0x2116 DUP6 DUP3 PUSH2 0x209B JUMP JUMPDEST DUP7 SSTORE POP PUSH2 0x217E JUMP JUMPDEST PUSH1 0x1F NOT DUP5 AND PUSH2 0x212C DUP7 PUSH2 0x1F0B JUMP JUMPDEST PUSH1 0x0 JUMPDEST DUP3 DUP2 LT ISZERO PUSH2 0x2154 JUMPI DUP5 DUP10 ADD CALLDATALOAD DUP3 SSTORE PUSH1 0x1 DUP3 ADD SWAP2 POP PUSH1 0x20 DUP6 ADD SWAP5 POP PUSH1 0x20 DUP2 ADD SWAP1 POP PUSH2 0x212F JUMP JUMPDEST DUP7 DUP4 LT ISZERO PUSH2 0x2171 JUMPI DUP5 DUP10 ADD CALLDATALOAD PUSH2 0x216D PUSH1 0x1F DUP10 AND DUP3 PUSH2 0x207D JUMP JUMPDEST DUP4 SSTORE POP JUMPDEST PUSH1 0x1 PUSH1 0x2 DUP9 MUL ADD DUP9 SSTORE POP POP POP JUMPDEST POP POP POP POP POP POP POP JUMP JUMPDEST DUP3 DUP2 DUP4 CALLDATACOPY PUSH1 0x0 DUP4 DUP4 ADD MSTORE POP POP POP JUMP JUMPDEST PUSH1 0x0 PUSH2 0x21A2 DUP4 DUP6 PUSH2 0x1439 JUMP JUMPDEST SWAP4 POP PUSH2 0x21AF DUP4 DUP6 DUP5 PUSH2 0x2187 JUMP JUMPDEST PUSH2 0x21B8 DUP4 PUSH2 0x1270 JUMP JUMPDEST DUP5 ADD SWAP1 POP SWAP4 SWAP3 POP POP POP JUMP JUMPDEST PUSH1 0x0 PUSH1 0xA0 DUP3 ADD SWAP1 POP PUSH2 0x21D8 PUSH1 0x0 DUP4 ADD DUP10 PUSH2 0x142A JUMP JUMPDEST DUP2 DUP2 SUB PUSH1 0x20 DUP4 ADD MSTORE PUSH2 0x21EB DUP2 DUP8 DUP10 PUSH2 0x2196 JUMP JUMPDEST SWAP1 POP PUSH2 0x21FA PUSH1 0x40 DUP4 ADD DUP7 PUSH2 0x14B5 JUMP JUMPDEST PUSH2 0x2207 PUSH1 0x60 DUP4 ADD DUP6 PUSH2 0x142A JUMP JUMPDEST PUSH2 0x2214 PUSH1 0x80 DUP4 ADD DUP5 PUSH2 0x142A JUMP JUMPDEST SWAP8 SWAP7 POP POP POP POP POP POP POP JUMP INVALID LOG2 PUSH5 0x6970667358 0x22 SLT KECCAK256 PUSH14 0x6E3D77D852FB60B1AEDDC043B891 0x4F CALLCODE 0xB3 PUSH13 0x4134511D7F030D6708BD0B8E17 PUSH5 0x736F6C6343 STOP ADDMOD SHL STOP CALLER "},"methodIdentifiers":{"createQuiz(string,uint256,uint256)":"d8187d05","endQuiz(uint256)":"90c588e4","getAllQuizzes()":"6a4af0fa","getParticipants(uint256)":"c1e3bd3e","joinQuiz(uint256,uint256)":"83b83ac3","owner()":"8da5cb5b","quizIdCounter()":"b8f15451","quizzes(uint256)":"88409afa"}}}}}