{
  "_format": "hh-sol-artifact-1",
  "contractName": "QuizApp",
  "sourceName": "contracts/QuizApp.sol",
  "abi": [
    {
      "inputs": [],
      "stateMutability": "nonpayable",
      "type": "constructor"
    },
    {
      "anonymous": false,
      "inputs": [
        {
          "indexed": false,
          "internalType": "uint256",
          "name": "quizId",
          "type": "uint256"
        },
        {
          "indexed": false,
          "internalType": "address",
          "name": "participant",
          "type": "address"
        },
        {
          "indexed": false,
          "internalType": "uint256",
          "name": "score",
          "type": "uint256"
        }
      ],
      "name": "ParticipantJoined",
      "type": "event"
    },
    {
      "anonymous": false,
      "inputs": [
        {
          "indexed": false,
          "internalType": "uint256",
          "name": "quizId",
          "type": "uint256"
        },
        {
          "indexed": false,
          "internalType": "string",
          "name": "qid",
          "type": "string"
        },
        {
          "indexed": false,
          "internalType": "address",
          "name": "creator",
          "type": "address"
        },
        {
          "indexed": false,
          "internalType": "uint256",
          "name": "budget",
          "type": "uint256"
        },
        {
          "indexed": false,
          "internalType": "uint256",
          "name": "questionsCount",
          "type": "uint256"
        }
      ],
      "name": "QuizCreated",
      "type": "event"
    },
    {
      "anonymous": false,
      "inputs": [
        {
          "indexed": false,
          "internalType": "uint256",
          "name": "quizId",
          "type": "uint256"
        },
        {
          "indexed": false,
          "internalType": "uint256",
          "name": "totalDistributed",
          "type": "uint256"
        }
      ],
      "name": "QuizEnded",
      "type": "event"
    },
    {
      "inputs": [
        {
          "internalType": "string",
          "name": "_qid",
          "type": "string"
        },
        {
          "internalType": "uint256",
          "name": "_questionsCount",
          "type": "uint256"
        },
        {
          "internalType": "uint256",
          "name": "_rewardPerPoint",
          "type": "uint256"
        }
      ],
      "name": "createQuiz",
      "outputs": [],
      "stateMutability": "payable",
      "type": "function"
    },
    {
      "inputs": [
        {
          "internalType": "uint256",
          "name": "_quizId",
          "type": "uint256"
        }
      ],
      "name": "endQuiz",
      "outputs": [],
      "stateMutability": "nonpayable",
      "type": "function"
    },
    {
      "inputs": [],
      "name": "getAllQuizzes",
      "outputs": [
        {
          "internalType": "uint256[]",
          "name": "",
          "type": "uint256[]"
        },
        {
          "internalType": "string[]",
          "name": "",
          "type": "string[]"
        }
      ],
      "stateMutability": "view",
      "type": "function"
    },
    {
      "inputs": [
        {
          "internalType": "uint256",
          "name": "_quizId",
          "type": "uint256"
        }
      ],
      "name": "getParticipants",
      "outputs": [
        {
          "components": [
            {
              "internalType": "address",
              "name": "addr",
              "type": "address"
            },
            {
              "internalType": "uint256",
              "name": "score",
              "type": "uint256"
            }
          ],
          "internalType": "struct QuizApp.Participant[]",
          "name": "",
          "type": "tuple[]"
        }
      ],
      "stateMutability": "view",
      "type": "function"
    },
    {
      "inputs": [
        {
          "internalType": "uint256",
          "name": "_quizId",
          "type": "uint256"
        },
        {
          "internalType": "uint256",
          "name": "_score",
          "type": "uint256"
        }
      ],
      "name": "joinQuiz",
      "outputs": [],
      "stateMutability": "nonpayable",
      "type": "function"
    },
    {
      "inputs": [],
      "name": "owner",
      "outputs": [
        {
          "internalType": "address",
          "name": "",
          "type": "address"
        }
      ],
      "stateMutability": "view",
      "type": "function"
    },
    {
      "inputs": [],
      "name": "quizIdCounter",
      "outputs": [
        {
          "internalType": "uint256",
          "name": "",
          "type": "uint256"
        }
      ],
      "stateMutability": "view",
      "type": "function"
    },
    {
      "inputs": [
        {
          "internalType": "uint256",
          "name": "",
          "type": "uint256"
        }
      ],
      "name": "quizzes",
      "outputs": [
        {
          "internalType": "uint256",
          "name": "id",
          "type": "uint256"
        },
        {
          "internalType": "string",
          "name": "qid",
          "type": "string"
        },
        {
          "internalType": "address",
          "name": "creator",
          "type": "address"
        },
        {
          "internalType": "uint256",
          "name": "budget",
          "type": "uint256"
        },
        {
          "internalType": "uint256",
          "name": "questionsCount",
          "type": "uint256"
        },
        {
          "internalType": "uint256",
          "name": "participantCount",
          "type": "uint256"
        },
        {
          "internalType": "uint256",
          "name": "rewardPerPoint",
          "type": "uint256"
        },
        {
          "internalType": "uint256",
          "name": "totalScore",
          "type": "uint256"
        },
        {
          "internalType": "bool",
          "name": "active",
          "type": "bool"
        }
      ],
      "stateMutability": "view",
      "type": "function"
    }
  ],
  "bytecode": "0x6080604052348015600f57600080fd5b50336000806101000a81548173ffffffffffffffffffffffffffffffffffffffff021916908373ffffffffffffffffffffffffffffffffffffffff16021790555060018081905550612255806100666000396000f3fe60806040526004361061007b5760003560e01c806390c588e41161004e57806390c588e414610145578063b8f154511461016e578063c1e3bd3e14610199578063d8187d05146101d65761007b565b80636a4af0fa1461008057806383b83ac3146100ac57806388409afa146100d55780638da5cb5b1461011a575b600080fd5b34801561008c57600080fd5b506100956101f2565b6040516100a3929190611350565b60405180910390f35b3480156100b857600080fd5b506100d360048036038101906100ce91906113bd565b6103e4565b005b3480156100e157600080fd5b506100fc60048036038101906100f791906113fd565b6107a0565b604051610111999897969594939291906114df565b60405180910390f35b34801561012657600080fd5b5061012f6108a3565b60405161013c9190611573565b60405180910390f35b34801561015157600080fd5b5061016c600480360381019061016791906113fd565b6108c7565b005b34801561017a57600080fd5b50610183610d2a565b604051610190919061158e565b60405180910390f35b3480156101a557600080fd5b506101c060048036038101906101bb91906113fd565b610d30565b6040516101cd9190611696565b60405180910390f35b6101f060048036038101906101eb919061171d565b610eac565b005b60608060006001805461020591906117c0565b67ffffffffffffffff81111561021e5761021d6117f4565b5b60405190808252806020026020018201604052801561024c5781602001602082028036833780820191505090505b50905060006001805461025f91906117c0565b67ffffffffffffffff811115610278576102776117f4565b5b6040519080825280602002602001820160405280156102ab57816020015b60608152602001906001900390816102965790505b5090506000600190505b6001548110156103d7576002600082815260200190815260200160002060000154836001836102e491906117c0565b815181106102f5576102f4611823565b5b60200260200101818152505060026000828152602001908152602001600020600101805461032290611881565b80601f016020809104026020016040519081016040528092919081815260200182805461034e90611881565b801561039b5780601f106103705761010080835404028352916020019161039b565b820191906000526020600020905b81548152906001019060200180831161037e57829003601f168201915b5050505050826001836103ae91906117c0565b815181106103bf576103be611823565b5b602002602001018190525080806001019150506102b5565b5081819350935050509091565b81600073ffffffffffffffffffffffffffffffffffffffff166002600083815260200190815260200160002060020160009054906101000a900473ffffffffffffffffffffffffffffffffffffffff1673ffffffffffffffffffffffffffffffffffffffff160361048a576040517f08c379a0000000000000000000000000000000000000000000000000000000008152600401610481906118fe565b60405180910390fd5b82600115156002600083815260200190815260200160002060080160009054906101000a900460ff161515146104f5576040517f08c379a00000000000000000000000000000000000000000000000000000000081526004016104ec9061196a565b60405180910390fd5b600060026000868152602001908152602001600020905080600a0160003373ffffffffffffffffffffffffffffffffffffffff1673ffffffffffffffffffffffffffffffffffffffff16815260200190815260200160002060009054906101000a900460ff161561059b576040517f08c379a0000000000000000000000000000000000000000000000000000000008152600401610592906119d6565b60405180910390fd5b600084116105de576040517f08c379a00000000000000000000000000000000000000000000000000000000081526004016105d590611a42565b60405180910390fd5b8060090160405180604001604052803373ffffffffffffffffffffffffffffffffffffffff16815260200186815250908060018154018082558091505060019003906000526020600020906002020160009091909190915060008201518160000160006101000a81548173ffffffffffffffffffffffffffffffffffffffff021916908373ffffffffffffffffffffffffffffffffffffffff160217905550602082015181600101555050600181600a0160003373ffffffffffffffffffffffffffffffffffffffff1673ffffffffffffffffffffffffffffffffffffffff16815260200190815260200160002060006101000a81548160ff0219169083151502179055508381600b0160003373ffffffffffffffffffffffffffffffffffffffff1673ffffffffffffffffffffffffffffffffffffffff168152602001908152602001600020819055508381600701600082825461073d9190611a62565b9250508190555080600501600081548092919061075990611a96565b91905055507f338e0cd33c4e120afcd73f43f082fd8940ed67ac35180d278d2eb4f3ed51d92e85338660405161079193929190611ade565b60405180910390a15050505050565b60026020528060005260406000206000915090508060000154908060010180546107c990611881565b80601f01602080910402602001604051908101604052809291908181526020018280546107f590611881565b80156108425780601f1061081757610100808354040283529160200191610842565b820191906000526020600020905b81548152906001019060200180831161082557829003601f168201915b5050505050908060020160009054906101000a900473ffffffffffffffffffffffffffffffffffffffff16908060030154908060040154908060050154908060060154908060070154908060080160009054906101000a900460ff16905089565b60008054906101000a900473ffffffffffffffffffffffffffffffffffffffff1681565b803373ffffffffffffffffffffffffffffffffffffffff166002600083815260200190815260200160002060020160009054906101000a900473ffffffffffffffffffffffffffffffffffffffff1673ffffffffffffffffffffffffffffffffffffffff161461096c576040517f08c379a000000000000000000000000000000000000000000000000000000000815260040161096390611b87565b60405180910390fd5b81600073ffffffffffffffffffffffffffffffffffffffff166002600083815260200190815260200160002060020160009054906101000a900473ffffffffffffffffffffffffffffffffffffffff1673ffffffffffffffffffffffffffffffffffffffff1603610a12576040517f08c379a0000000000000000000000000000000000000000000000000000000008152600401610a09906118fe565b60405180910390fd5b82600115156002600083815260200190815260200160002060080160009054906101000a900460ff16151514610a7d576040517f08c379a0000000000000000000000000000000000000000000000000000000008152600401610a749061196a565b60405180910390fd5b60006002600086815260200190815260200160002090506000816009018054905011610ade576040517f08c379a0000000000000000000000000000000000000000000000000000000008152600401610ad590611bf3565b60405180910390fd5b6000816007015411610b25576040517f08c379a0000000000000000000000000000000000000000000000000000000008152600401610b1c90611c85565b60405180910390fd5b60008160080160006101000a81548160ff0219169083151502179055506000805b8260090180549050811015610c68576000836009018281548110610b6d57610b6c611823565b5b90600052602060002090600202016040518060400160405290816000820160009054906101000a900473ffffffffffffffffffffffffffffffffffffffff1673ffffffffffffffffffffffffffffffffffffffff1673ffffffffffffffffffffffffffffffffffffffff1681526020016001820154815250509050600084600601548260200151610bfe9190611ca5565b90508084610c0c9190611a62565b9350816000015173ffffffffffffffffffffffffffffffffffffffff166108fc829081150290604051600060405180830381858888f19350505050158015610c58573d6000803e3d6000fd5b5050508080600101915050610b46565b506000818360030154610c7b91906117c0565b90508260020160009054906101000a900473ffffffffffffffffffffffffffffffffffffffff1673ffffffffffffffffffffffffffffffffffffffff166108fc829081150290604051600060405180830381858888f19350505050158015610ce7573d6000803e3d6000fd5b507fa079fdba1bc1af068f704947986666feb435d952a5db81d4109e9e7d070efbdb8783604051610d19929190611ce7565b60405180910390a150505050505050565b60015481565b606081600073ffffffffffffffffffffffffffffffffffffffff166002600083815260200190815260200160002060020160009054906101000a900473ffffffffffffffffffffffffffffffffffffffff1673ffffffffffffffffffffffffffffffffffffffff1603610dd8576040517f08c379a0000000000000000000000000000000000000000000000000000000008152600401610dcf906118fe565b60405180910390fd5b60026000848152602001908152602001600020600901805480602002602001604051908101604052809291908181526020016000905b82821015610ea057838290600052602060002090600202016040518060400160405290816000820160009054906101000a900473ffffffffffffffffffffffffffffffffffffffff1673ffffffffffffffffffffffffffffffffffffffff1673ffffffffffffffffffffffffffffffffffffffff16815260200160018201548152505081526020019060010190610e0e565b50505050915050919050565b60003411610eef576040517f08c379a0000000000000000000000000000000000000000000000000000000008152600401610ee690611d5c565b60405180910390fd5b60008211610f32576040517f08c379a0000000000000000000000000000000000000000000000000000000008152600401610f2990611dee565b60405180910390fd5b60008111610f75576040517f08c379a0000000000000000000000000000000000000000000000000000000008152600401610f6c90611e80565b60405180910390fd5b60006064600834610f869190611ca5565b610f909190611ecf565b905060008054906101000a900473ffffffffffffffffffffffffffffffffffffffff1673ffffffffffffffffffffffffffffffffffffffff166108fc829081150290604051600060405180830381858888f19350505050158015610ff8573d6000803e3d6000fd5b506000813461100791906117c0565b905060006001549050600060026000838152602001908152602001600020905081816000018190555087878260010191826110439291906120b7565b50338160020160006101000a81548173ffffffffffffffffffffffffffffffffffffffff021916908373ffffffffffffffffffffffffffffffffffffffff16021790555082816003018190555085816004018190555084816006018190555060018160080160006101000a81548160ff0219169083151502179055506000816007018190555060008160050181905550600160008154809291906110e690611a96565b91905055507ff826b5bf3215582e86e92ed5a9b21a37350df8294d7ba9347c787df4912efc9882898933878b604051611124969594939291906121c3565b60405180910390a15050505050505050565b600081519050919050565b600082825260208201905092915050565b6000819050602082019050919050565b6000819050919050565b61117581611162565b82525050565b6000611187838361116c565b60208301905092915050565b6000602082019050919050565b60006111ab82611136565b6111b58185611141565b93506111c083611152565b8060005b838110156111f15781516111d8888261117b565b97506111e383611193565b9250506001810190506111c4565b5085935050505092915050565b600081519050919050565b600082825260208201905092915050565b6000819050602082019050919050565b600081519050919050565b600082825260208201905092915050565b60005b83811015611264578082015181840152602081019050611249565b60008484015250505050565b6000601f19601f8301169050919050565b600061128c8261122a565b6112968185611235565b93506112a6818560208601611246565b6112af81611270565b840191505092915050565b60006112c68383611281565b905092915050565b6000602082019050919050565b60006112e6826111fe565b6112f08185611209565b9350836020820285016113028561121a565b8060005b8581101561133e578484038952815161131f85826112ba565b945061132a836112ce565b925060208a01995050600181019050611306565b50829750879550505050505092915050565b6000604082019050818103600083015261136a81856111a0565b9050818103602083015261137e81846112db565b90509392505050565b600080fd5b600080fd5b61139a81611162565b81146113a557600080fd5b50565b6000813590506113b781611391565b92915050565b600080604083850312156113d4576113d3611387565b5b60006113e2858286016113a8565b92505060206113f3858286016113a8565b9150509250929050565b60006020828403121561141357611412611387565b5b6000611421848285016113a8565b91505092915050565b61143381611162565b82525050565b600082825260208201905092915050565b60006114558261122a565b61145f8185611439565b935061146f818560208601611246565b61147881611270565b840191505092915050565b600073ffffffffffffffffffffffffffffffffffffffff82169050919050565b60006114ae82611483565b9050919050565b6114be816114a3565b82525050565b60008115159050919050565b6114d9816114c4565b82525050565b6000610120820190506114f5600083018c61142a565b8181036020830152611507818b61144a565b9050611516604083018a6114b5565b611523606083018961142a565b611530608083018861142a565b61153d60a083018761142a565b61154a60c083018661142a565b61155760e083018561142a565b6115656101008301846114d0565b9a9950505050505050505050565b600060208201905061158860008301846114b5565b92915050565b60006020820190506115a3600083018461142a565b92915050565b600081519050919050565b600082825260208201905092915050565b6000819050602082019050919050565b6115de816114a3565b82525050565b6040820160008201516115fa60008501826115d5565b50602082015161160d602085018261116c565b50505050565b600061161f83836115e4565b60408301905092915050565b6000602082019050919050565b6000611643826115a9565b61164d81856115b4565b9350611658836115c5565b8060005b838110156116895781516116708882611613565b975061167b8361162b565b92505060018101905061165c565b5085935050505092915050565b600060208201905081810360008301526116b08184611638565b905092915050565b600080fd5b600080fd5b600080fd5b60008083601f8401126116dd576116dc6116b8565b5b8235905067ffffffffffffffff8111156116fa576116f96116bd565b5b602083019150836001820283011115611716576117156116c2565b5b9250929050565b6000806000806060858703121561173757611736611387565b5b600085013567ffffffffffffffff8111156117555761175461138c565b5b611761878288016116c7565b94509450506020611774878288016113a8565b9250506040611785878288016113a8565b91505092959194509250565b7f4e487b7100000000000000000000000000000000000000000000000000000000600052601160045260246000fd5b60006117cb82611162565b91506117d683611162565b92508282039050818111156117ee576117ed611791565b5b92915050565b7f4e487b7100000000000000000000000000000000000000000000000000000000600052604160045260246000fd5b7f4e487b7100000000000000000000000000000000000000000000000000000000600052603260045260246000fd5b7f4e487b7100000000000000000000000000000000000000000000000000000000600052602260045260246000fd5b6000600282049050600182168061189957607f821691505b6020821081036118ac576118ab611852565b5b50919050565b7f5175697a20646f6573206e6f7420657869737400000000000000000000000000600082015250565b60006118e8601383611439565b91506118f3826118b2565b602082019050919050565b60006020820190508181036000830152611917816118db565b9050919050565b7f5175697a206973206e6f74206163746976650000000000000000000000000000600082015250565b6000611954601283611439565b915061195f8261191e565b602082019050919050565b6000602082019050818103600083015261198381611947565b9050919050565b7f416c726561647920706172746963697061746564000000000000000000000000600082015250565b60006119c0601483611439565b91506119cb8261198a565b602082019050919050565b600060208201905081810360008301526119ef816119b3565b9050919050565b7f53636f7265206d7573742062652067726561746572207468616e203000000000600082015250565b6000611a2c601c83611439565b9150611a37826119f6565b602082019050919050565b60006020820190508181036000830152611a5b81611a1f565b9050919050565b6000611a6d82611162565b9150611a7883611162565b9250828201905080821115611a9057611a8f611791565b5b92915050565b6000611aa182611162565b91507fffffffffffffffffffffffffffffffffffffffffffffffffffffffffffffffff8203611ad357611ad2611791565b5b600182019050919050565b6000606082019050611af3600083018661142a565b611b0060208301856114b5565b611b0d604083018461142a565b949350505050565b7f4f6e6c7920746865207175697a2063726561746f722063616e20706572666f7260008201527f6d207468697320616374696f6e00000000000000000000000000000000000000602082015250565b6000611b71602d83611439565b9150611b7c82611b15565b604082019050919050565b60006020820190508181036000830152611ba081611b64565b9050919050565b7f4e6f207061727469636970616e747320746f2064697374726962757465000000600082015250565b6000611bdd601d83611439565b9150611be882611ba7565b602082019050919050565b60006020820190508181036000830152611c0c81611bd0565b9050919050565b7f546f74616c2073636f7265206d7573742062652067726561746572207468616e60008201527f2030000000000000000000000000000000000000000000000000000000000000602082015250565b6000611c6f602283611439565b9150611c7a82611c13565b604082019050919050565b60006020820190508181036000830152611c9e81611c62565b9050919050565b6000611cb082611162565b9150611cbb83611162565b9250828202611cc981611162565b91508282048414831517611ce057611cdf611791565b5b5092915050565b6000604082019050611cfc600083018561142a565b611d09602083018461142a565b9392505050565b7f427564676574206d7573742062652067726561746572207468616e2030000000600082015250565b6000611d46601d83611439565b9150611d5182611d10565b602082019050919050565b60006020820190508181036000830152611d7581611d39565b9050919050565b7f5468657265206d757374206265206174206c65617374206f6e6520717565737460008201527f696f6e0000000000000000000000000000000000000000000000000000000000602082015250565b6000611dd8602383611439565b9150611de382611d7c565b604082019050919050565b60006020820190508181036000830152611e0781611dcb565b9050919050565b7f5265776172642070657220706f696e74206d757374206265206772656174657260008201527f207468616e203000000000000000000000000000000000000000000000000000602082015250565b6000611e6a602783611439565b9150611e7582611e0e565b604082019050919050565b60006020820190508181036000830152611e9981611e5d565b9050919050565b7f4e487b7100000000000000000000000000000000000000000000000000000000600052601260045260246000fd5b6000611eda82611162565b9150611ee583611162565b925082611ef557611ef4611ea0565b5b828204905092915050565b600082905092915050565b60008190508160005260206000209050919050565b60006020601f8301049050919050565b600082821b905092915050565b600060088302611f6d7fffffffffffffffffffffffffffffffffffffffffffffffffffffffffffffffff82611f30565b611f778683611f30565b95508019841693508086168417925050509392505050565b6000819050919050565b6000611fb4611faf611faa84611162565b611f8f565b611162565b9050919050565b6000819050919050565b611fce83611f99565b611fe2611fda82611fbb565b848454611f3d565b825550505050565b600090565b611ff7611fea565b612002818484611fc5565b505050565b5b818110156120265761201b600082611fef565b600181019050612008565b5050565b601f82111561206b5761203c81611f0b565b61204584611f20565b81016020851015612054578190505b61206861206085611f20565b830182612007565b50505b505050565b600082821c905092915050565b600061208e60001984600802612070565b1980831691505092915050565b60006120a7838361207d565b9150826002028217905092915050565b6120c18383611f00565b67ffffffffffffffff8111156120da576120d96117f4565b5b6120e48254611881565b6120ef82828561202a565b6000601f83116001811461211e576000841561210c578287013590505b612116858261209b565b86555061217e565b601f19841661212c86611f0b565b60005b828110156121545784890135825560018201915060208501945060208101905061212f565b86831015612171578489013561216d601f89168261207d565b8355505b6001600288020188555050505b50505050505050565b82818337600083830152505050565b60006121a28385611439565b93506121af838584612187565b6121b883611270565b840190509392505050565b600060a0820190506121d8600083018961142a565b81810360208301526121eb818789612196565b90506121fa60408301866114b5565b612207606083018561142a565b612214608083018461142a565b97965050505050505056fea26469706673582212206d6e3d77d852fb60b1aeddc043b8914ff2b36c4134511d7f030d6708bd0b8e1764736f6c634300081b0033",
  "linkReferences": {},
  "deployedLinkReferences": {}
}